:20000000004C0020893C000001CA011001CA011001CA011001CA011001CA011001CA011087
:1C00200001CA011001CA011001CA011001CA011001CA011001CA01103FCA011082
:200100003C000000000000000000000034010000000000000000000001000000000000006D
:1C01200000000000000000000000000001000000000000000800000000000000BA
:20013C00340000000000000000000000680100000000000000000000010000000000000005
:14015C00010000000000000000000000080000000000000086
:2001700030000000000000000000000098010000040000000000000001000000FFFFFFFFA5
:10019000FF00000001000000080000000000000057
:2001A0002C0000000000000000000000C4010000040000000000000001000000FFFFFFFF4D
:0C01C000FFFFFFFF08000000000000002F
:2001CC0034050000E401000099A1011095A70110A5C2011009B2011045B80110000000000B
:0801EC00000000002E000000DD
:2001F400280000000000000000000000140200000000000000000000FFFFFFFF00000000B1
:080214000800000000000000DA
:20021C00300500003002000069C201106DC101101FC2011095BA011000000000000000008E
:04023C002C00000092
:20024000300500005402000075C20110A9B601109DBF011049B601100000000000000000DE
:040260002D0000006D
:200264002400000000000000000000008002000000000000000000000000000008000000CC
:040284000000000076
:20028800240000000000000000000000A40200000000000000000000000000000800000084
:0402A8000000000052
:2002AC00240000000000000000000000C8020000000000000100000000000000080000003B
:0402CC00000000002E
:2002D00000000000A80F002004000000000000000000000020000000700100003000000072
:2002F0001C020000B00F00200400000000000000000000000C000000300400001800000095
:2003100040020000B80F002004000000000000000000000024000000480400001800000018
:2003300000000000C00F002004000000000000000000000010000000A00100002C000000DD
:20035000CC010000C80F00200400000000000000000000002000000064020000240000001B
:20037000FFFFFFFFD00F002004000000000000000000000028000000880200002400000098
:20039000FFFFFFFFE00F0020040000000000000000000000580000003C0100003400000075
:2003B000FFFFFFFFE80F00200400000000000000000000001000000060040000180000008A
:2003D000FFFFFFFFF00F00200400000000000000000000001C000000AC0200002400000000
:2003F000FFFFFFFFF80F002004000000000000000000000038000000F40100002800000071
:20041000FFFFFFFF0010002004000000000000000000000054000000000100003C0000000B
:1804300018000000000000000000000040040000080000000000000050
:1804480018000000000000000000000058040000080000000000000020
:18046000180000000000000000000000700400000800000000000000F0
:08047800020000008C69000085
:040484000100000073
:0404880000008C0FD5
:04048C000000BC0FA1
:040490003200000036
:040494000100000063
:04049800600F0020D1
:04049C00000200005A
:0404A0000000000058
:0404A40001CA011078
:0404A8000000000050
:0404AC00000000004C
:0404B0000800000040
:0404B40000007612BC
:0404B800780E00209A
:0404BC00010000003B
:0404C000780F002091
:0404C400080000002C
:0404C8000000000030
:0404CC00000000002C
:0404D0000000000028
:0404D4000000000024
:0404D8000000000020
:0404DC00010000001B
:0404E000E00E00200A
:0404E400060000000E
:0404E800010000000F
:0404EC00E00D0020FF
:0404F0000000000008
:0404F4000000000004
:0404F80000020000FE
:0404FC0000000000FC
:020502002800CF
:020504000100F4
:020506002400CF
:020508002C00C5
:02050A002D00C2
:02050C002E00BF
:02050E000100EA
:0105100001E9
:080514000300000078690000FB
:08051C000000000000000000D7
:040524000000930D33
:040528000000AD0D15
:04052C0087C401106F
:04053000380500008A
:040534003805000086
:0405380000000000BF
:04053C0090610000CA
:0405400090610000C6
:0405440000000000B3
:04054800780F002008
:04054C00BD490000A5
:040550002000000087
:040554002469000016
:040558003468000003
:04055C000DC30110BA
:040560006B490000E3
:04056400CF4900007B
:0405680099C801101D
:04056C009BC8011017
:040570000000000087
:04057400784D0000BE
:040578000C6700000C
:04057C0024670000F0
:04058000F46600001D
:020584000280F3
:020586000380F0
:02058800C0179A
:02058A0001006E
:01058C00016D
:040590000000000067
:040594000000000063
:04059800000000005F
:04059C00000000005B
:0405A000874B000085
:0405A400393F0000DB
:0405A8000546000004
:0405AC00AD4000005E
:0405B00015410000F1
:0405B4009942000068
:0405B800013200000C
:0405BC005B4A000096
:0405C00049370000B7
:0405C40011C8011049
:0405C80021C8011035
:0405CC000800000023
:0405D0002400000003
:0405D400180000000B
:0405D80028000000F7
:0405DC0020000000FB
:0405E0003C000000DB
:0405E4000C00000007
:0405E80034000000DB
:2005EC002DE9F84F8046DD480122A0F130010A60D7490F68002FFCD0D74ED64AC02706F1A3
:20060C00040B1760DBF80010890804D23168090C41F0F00100E07221E34AE44D4FF0000915
:20062C0082F85412A5F1D407C0F80090D6F808A03868C0F3046004F0F5F95246534600EBEA
:20064C002270401C162805DA10F10A0FB8BF6FF0090000E01520E649E64F00F01F0040F4CE
:20066C00F8500880386880083ABFE348C0F8009042F04062E149A5F13C04D00E970E80F043
:20068C00010000F00100086087F0010000F0010088602068C0F38367C0F38F215FEA9A40F8
:2006AC0022D243F3072000280BD542424846490805D17F0806BF0127391C4FF6FF71521EAE
:2006CC00F5D1002810DD4FF6FF72490041F001018A4207D27F0047F001070F2F92BF0121ED
:2006EC000F27111C401EF0D141EA0741182003F055FC20682768C34CC0F3870140F2FF32B9
:20070C004B4607F0030041EA0021274688B22C210090A7F1400003F0FDF9A5F11007386864
:20072C00C0F30D011C2003F039FCB54957F8080C014000F07C400143142003F02FFC57F855
:20074C000C1C01F47C000904090C0143102003F025FC57F8042CDBF80010C2F30350C2F32B
:20076C000343490812D231680E0510EB267003D41028A8BF0F2000E04846090413EB217303
:20078C0003D4102BA8BF0F2300E04B4643EA001302F47F4002F0FF01B8F1220F40EA034003
:2007AC0041EA000124BF02F0804211430C2003F0F5FBB8F1220F32BF01202868C0F3007068
:2007CC00B8F1220F4FEA400040F0200084F8090126BF2868C0F3407001208B4EB8F1200F3A
:2007EC0040F0100084F8090138BF494606D33168C80C00F44070C1F384510143282003F0AF
:20080C00CDFBB8F1200F26BF3068C0F301504846B8F1220F4FEA400040F0600084F80C01B1
:20082C0026BF2868C0F3C0604846B8F1220F4FEAC00040F0800084F8010126BF2868C0F3AD
:20084C0045504846B8F1200F4FEA800040F47C40A4F89C0138BF6D490AD3306801038A15EA
:20086C00920501F47C1100F00F00114341EA0031082003F093FB2E464FF480002060A6F1AD
:20088C00D000816D40F20F226FF31F418A4213D901680068C1F30367C0F3034007B17F1E77
:2008AC00072805D006280EBF0720801C00F00F003D4947EA00100870CAF381477F1E02D038
:2008CC007F1E28D023E03168880C20D24FF4804020604F48D0F802204B0AC1F3033703F01B
:2008EC00800322F08F02134347EA0302C0F80220D0F801300F0A67F30303C0F8013002689B
:20090C0001F0E70722F0E70247EA020102E04FF0004120460160DBF80000C0F3C0070FB97F
:20092C004020A0624FF400703E4F206428684FF04008C0F3C14040F0300084F8C800CAF359
:20094C008150A8B3401E0BD0401E28D0022127E09402224300600C40AC3F0050401009402B
:20096C00012003F0E9FE05460420294602F0F0FF042003F0E1FE8542FAD12648056825F039
:20098C007F4003F0DBFB384614300068036807214FF06022280E98474FF480602060032169
:2009AC00042002F0D5FF0AE0026008408C1300500420012102F0CCFF174803F0BFFB203E51
:2009CC0030681649164B47F6180500F03F0084F8CB0F3A460D8018681068C16802208847B5
:2009EC001248114EC0F8008001213160BDE8F88F6E6208400000094094042A430000204352
:200A0C00FCFCFC0040A00C409813005000803F400A600840A83F0050BD37860070B00C40E1
:200A2C002C200940A00100109404604200600C402DE9F04F09AFADF13C0D08900A92388896
:200A4C0009911E46ADF81800101C08BF002000F08481002700F101094FF0FF3A4FF0010BE2
:200A6C00B8466CE1252940F063811078521C0A922D2818BFADF8068005D15846551CADF84A
:200A8C00060010780A9530281CBF4246434605D10A9908785A465B46491C0A912A28CDF888
:200AAC000080554616D1306804930A99CDF808A0C01C4B1C20F00300001D306050F8044C4E
:200ACC000A93002C0878009418D5ADF806B06442009413E044460AE0610001EBC401091811
:200AEC00A1F130040A9908780094491C0A91302801DB3A28F0DBCDF808A004932E282BD1B6
:200B0C000A9908782A2801F101010A9111D13068CDF80880C01C20F00300001D306050F81A
:200B2C00045C002D48BF454608782B46491C0A9111E0454643460AE0690001EBC50109186E
:200B4C00A1F130050A9908782B46491C0A91302801DB3A28F0DB02930AB1224604926C28EB
:200B6C0004D04C2818BFADF8048005D10A990878ADF804B0491C0A910BA9CDF80C800FAB10
:200B8C0007916428059300F08B80692800F08880BDF818C0752872D078286ED06F286AD0EE
:200BAC00702850D063283DD073281ED009980A990128A1F101010A9115D96B490C68B5F1F8
:200BCC00FF3F03D0A84288BF6D1C00D8099D029508A80AA932466B46A0473F180A99039821
:200BEC0001F1010974E040462AE030680A99C01C20F00300001D306050F8040CBCF1000F1E
:200C0C0001F10109014608B955A00146079103F0B1FE0390B5F1FF3F5BD0A842C4BF281CFB
:200C2C00039056E03068C01C20F00300001D306010F8040C5D468DF82C000A990395584666
:200C4C0001F1010945E0082035680490E81C20F00300001D306050F8041C082210230FA8CE
:200C6C0002F0ACFB401E0790402101700A99079801F1010929E0082302E0102300E00A2374
:200C8C000A99306801F10109C01C20F00300001D306050F8041CAA42BCBF2A1C049210E0DA
:200CAC000A99306801F10109C01C20F00300001D306050F8041CAA42BCBF2A1C04926FF04B
:200CCC0009030FA802F07AFB0790059D281A0390009C241ABDF8065000945DB906E008A8AB
:200CEC00202109AA03F09EFB7F1C009C641E0094F5D503980546401E039075B9BDF8060091
:200D0C00E8B10098401E009019D408A8202109AA03F088FB00987F1CF4E70798411C0791FF
:200D2C00017809AA08A803F07DFB03987F1CE1E708A809AA03F076FB7F1C09F101094A466C
:200D4C000A9812F8011C401C00290A907FF48AAE089808B14146017038460FB0BDE8F08F42
:200D6C00286E756C6C2900C0C46900002DE9F04F7C4C04F1140004F10801ADF1140D01F09A
:200D8C001DFF606008B903F0EDFF7748774F01683888D0B176480068014216D07548006828
:200DAC00014204D174480068008801420DD075480468BF2764A600250097714B01966F4F5D
:200DCC0002951A8838685DA3A04703F059F8734F75496D486D4EA7F11D04744D0860884663
:200DEC0020684E60C0F38000002851D168495CC908F15C005CC05CC95CC01EC9012680E836
:200E0C001E0005F15504FF23D8F86C10B8F86A20C4F8AB3F5F48C4F8FF6F01F0E8FDD8F894
:200E2C007800804742F22B0042F60B3344F8550C594944F8513C4FF480720A60002344F88C
:200E4C00213C44F83D6CC4F8B36FC4F8F36FD4F8F30F03F083FFA7F11D02116841F004019F
:200E6C0011604F4A116821F0F05141F03451116003F070FFD7F8FF0F03F0DEF803F063FE0E
:200E8C0003F06AFE03F0F2F803F060FE03F06AFE03F064FF4349A1F10C031A685B68120484
:200EAC0042EA13420832CA6041F699170F610A6842F4A0220A60D1F8F02F22F01F0242F0C9
:200ECC002502C1F8F02F03F045FF012001F09EFC4FF0020905F10C064FF0000A6C1D4FF0C1
:200EEC002B0B204800684FF0FF325146134601F0CBF9071CF5D0F4D0012505EA07000228D9
:200F0C0016D1C6F8309030688008FAD2D8F86000A0F802A003F01AFE03F020FF039003F067
:200F2C0021FE6B202070039884F800B003F012FFAF434FEA4505D4D0DFE7C0467363546130
:200F4C00736B2E6300C046C073635461736B20696E697469616C697A6174696F6E20646FEC
:200F6C006E6500C0C0070020A4690000F2660000400500003C05000044050000B869000096
:200F8C0084050000B46900003B4B0000414B0000B067000000000E4000100E402D10094044
:200FAC000030094014200940540D002000500C402DE9F04F0128ADF1140D40F0F280DFF85C
:200FCC001492D9F8DC00012840F0E9800220C9F8DC0003F0BBFE0290012002F007FE20B10A
:200FEC0001210646C9F8DC10D5E003F0ABFE03906E484FF00008C0F80080012003F09CFB06
:20100C00012818BFCDF8008004D1404602F076FC0120009066486E4CC0F800801934D4F856
:20102C00FF0F112003F02CFD00280CBF46460126102003F025FD08B146F002060F2003F045
:20104C001FFD08B146F004060B2003F019FD30B1584800685849006B0246088890470A206D
:20106C0003F00EFD0028404618BF01204FF0805B0BF5DC7528B128685049006B0246088810
:20108C0090474F480127076028688069014646F0200088474B48076003F0ECFC00F001019B
:2010AC000191400815D2484803F0C3FC8246BAF1040FF8D0BAF1010F06D1DBF8D8014068ED
:2010CC0002464148032190474049086820F003000860404600F080F82868D4F8FF1F806B71
:2010EC008047019801280ED0BAF1010F06D1DBF8D801406802463448394690473349086891
:20110C0040F0030008602A480760286840690146304688470B2003F0B3FC28B128682649E5
:20112C00C06A0246088890470A2003F0A9FC28B128682249C06A024608889047204807608C
:20114C000322C9F8DC201F4BC3F800802868406B0146304688470128F8D1042002F046FDEA
:20116C00124807601A48D4F8FF1F01688909FCD30098012802D1384602F0C0FB03F074FC6A
:20118C00082002F033FD06460398C9F8DC7003F0D5FD02F077FA029803F0CCFD02E004267B
:2011AC0000E00126304605B0BDE8F08F0C40094000022243B8010010D4660000D066000098
:2011CC002820086080010443004003402422084014100940440C00202DE9F84F07467F482C
:2011EC00DFF8EC8135380068800880F0E28003F02FF905467D480830D0F800A000244FEA48
:20120C002A725FEA9A5002F101020AD2C5F13E0015F10A0F4FEAE000D8BF08208242B8BFFB
:20122C00021C684ED6F87C01C0F3046003F0FAFB03463068C0F3044003F0F4FB9A1883464F
:20124C00162A05DA12F10A0FB8BF6FF0090200E015225D4B5D4802F01F0141F4F8511980D9
:20126C00006810F0030F18BF0124C00828BF44F002040FB144F00404414691F90700281AAD
:20128C00052804DA8879A04208BF888870D0DFF844810F2DA5F10F092ADB09EB0510A0F118
:2012AC00F0094FEA2920072888BF07200746062F88BF062758F827C00423464603EB8703B2
:2012CC00F3584FEA940EE708A3EB0C0303F0FF0624BFC3F307273E444FEA540CA70824BFE4
:2012EC00C3F307473E44670828BF06EB136605E000264FEA940E4FEA540C304658F82080B7
:20130C005FEA5E0708F0FF0324BFC8F307273B445FEA5C0724BFC8F307473B44670828BF61
:20132C0003EB1863B6B2A9EB0027ABEB02007E43002806F1800603EB1623D8BF01203422E2
:20134C000AF0FF0742437A43B2FBF3F04FF6FF72824238BF101C802D80B2888005DA15F146
:20136C00800FB8BF6FF07F0500E07F25CD718C71194A12681F280A604FF0000208D340F2DD
:20138C00FF11814206D24008521C8142FBD301E01F208880124F11490F38000942EAC0022E
:2013AC0047EA0200C1F8FB0F0026C1F8FF6FBDE8F88F0D4F0B4E414608203760891D087099
:2013CC00BDE8F88F3C1100506E62084024220840A81B00209C1300500820094035000940C1
:2013EC0000E7A48030100940FDFDA400AC3F00502DE9F843814603F031FB002100B9012141
:20140C006B4E30680028FCD06C4D01242D1DEF6A346009B103F028FBDFF89881C7F30720C5
:20142C0008F1BC01086003F019FB002100B9214630680028FCD02F68346009B103F014FBC7
:20144C00C7F38440C8F8C00003F008FB0146002001B92046014630680028FCD0ED69346048
:20146C0009B103F001FBC5F38120C8F8D000B9F5C061C8F8B81000F0968098F8D80068B9E8
:20148C00C8F8D410D8F8C000C8F8C800D8F8BC70C8F8C470D8F8D060C8F8CC60D8F8D410F4
:2014AC00D8F8BC60002954BF02206FF00100454605F1C8031A6801EB41014018411000EBE6
:2014CC00917002EBA0021A60D5F8C810C5F8C46000291CDD1E293DDDD5F8CC0030B934290E
:2014EC00B4BF15391E21C5F8C81025E02A29BABFD5F8C8000B381E20C5F8C800D5F8C4004E
:20150C003F28B4BF401C3F20C5F8C4001FE0D5F8CC00032812D011F10B0FC6BFD5F8C800CE
:20152C000B30201CC5F8C800D5F8C4000028CCBF401E0020C5F8C400032009E011F1150F2E
:20154C00C6BFD5F8C8001530201CC5F8C8000020C5F8CC00B5F8C400174E30214FF47F428B
:20156C0008230090304602F0D5FA009404214FF400321123304602F0CDFAB5F8C800042142
:20158C004FF4F80212230090304602F0C3FAB5F8CC0020214FF440620A230090304602F054
:2015AC00B9FABDE8F883002088F8D800BDE8F88300800C40440C002000A00C4000A00C40A0
:2015CC002DE9F04FADF1840D209000F0E1FB02F07DFA0024012804D103F01AF9022808BF7D
:2015EC00012459490868C0F38150012805D151F80C1C0120090E884004435448007802F067
:20160C00B3FFDFF84C81DFF84CA1C8F8000030B15246FF2107467F1E02F8011BFBD12099C6
:20162C000968002501F0FF02FE2A1BD0DDF880C052462B46012701F0FF06FF2E0BD0B042CD
:20164C0003D907FA06F6344201D0022079E001F0FF01354353545CF8041F5B1C01F0FF06EF
:20166C00FE2EEAD1092000F0EDFE3B49209824220823086001A8002103F058FB4FF0010905
:20168C0001AA3E488DF81C90494603F04BFBD8F800303BB33A4E00274FF0040BBA4609FA26
:2016AC0007F0044218D1054204BF07F0FF0141F4C04104D027482099C05D51F820102748C0
:2016CC0001F048F8F8B24FF0FF3103F043F8D8F80030C6F800A001E0C6F800B07F1C361DEB
:2016EC009F42DCD30AA800213022082303F016FB1B4D1D4A2878002410210AAB129019487E
:20170C00009403F007FB16A828220823214603F0FDFA686816AA16491C9014481D9423469F
:20172C0003F0F0FA134A52F80D0C494620F4F85040F4005042F80D0C0F4BC2F8FF1F2046A6
:20174C00196021B0BDE8F08FB43F0050B81B0020B01B00203C1B0020B41B0020007FC767DB
:20176C00846900005C1B00207D470000081B0020B13B00000D30094008000940781B00205C
:20178C008C1A00202DE9F04F694CA068ADF1440D002800F09D80DFF890914FF00A0B4FF0B6
:2017AC00010A4FF000088FE003F0D8FA21785F4BCA0002EB4112D218B2E8E01007ABA3E899
:2017CC00E010E0CAE0C364CA4F1C07F01F0183E8640004F10C05627821708A4208BF84F8C1
:2017EC0002A003F0B7FABDF82000002808BF2E1C09D00346A62138A2284602F0F0FF284609
:20180C0003F0B8F84619079FB8B202F017FF42A20CCA00F0C9FB42A20CCA00F0C5FB02F0D8
:20182C0009FAA91B00902EA23B0CA631304602F0D6FF284603F09EF84219A0682946521BE4
:20184C0003F059F9BDF82200E0B103F057FAB9F8007037B909990A9F0346009124A20197F7
:20186C0020E00A9900910B9F01970C9E02960D9B03930E9A04920F9F0597109E0696099BF0
:20188C0002460FE00B9800900C9F01970D9E02960E9B03930F9A0492CDF81480CDF8188018
:2018AC000A9B099A2846A62102F099FF284603F061F842190D2002F8010B02F801BBA0680F
:2018CC002946521B03F017F9A07800283FF46CAF11B0BDE8F08FC04623253036752000C0A1
:2018EC005B2025642E25303375205D2000C046C07B6576743A20666D743D25702C206172EE
:20190C0067733D5B307825782C2030782578202E2E2E5D7D00C046C0000000000000F03EFB
:20192C000000000000408F408A050000C0020020080200202DE9F0438046D8F80460D8F8DE
:20194C0008700C46ADF1340D03F008FA3178012903D103F0FFF90020A3E04FF0010986F8E1
:20196C00009003F0F7F9207870706078B07060687060A068B060E068F06020693061207D79
:20198C003075607D7075A07DB075A069B061207F3077607F00257077A07F356235631021C8
:2019AC0086F83C10B0772C4674627463B462B46386F82C4086F82D4086F83D40786800F03E
:2019CC0041FD404600F0A6FD404601F01DFA78B935480068C068014638688847786800F052
:2019EC00C7FC03F0BBF9347003F0B4F9A04657E001A821463022082303F090F9CDF81880AA
:201A0C003A7B09920095294AB96806F1680001AB03F080F901A828220823214603F076F9E3
:201A2C00396907912249CDF8148006F1840001AA234603F067F901A824220823214603F046
:201A4C0075F9B0788DF81C9038B906F1B800214601AA03F067F917483061707838B906F1EE
:201A6C00D400214601AA03F05DF91348F06001A821462422082303F03DF90694ADF8144043
:201A8C0006F1F0000D49CDF81C800A2201AB03F02DF90B4A06F154000421434602F0ECFC83
:201AAC0040460DB0BDE8F083D0010010A9210000A9390000334B00002B4B00005D2C0000B5
:201ACC00E14900002DE9FC415E4C574D574EDFF860815A4F94F8E410481E0B2861D8DFE810
:201AEC0000F07B2C43062343062343067664042907D001220A2945F8212C14BF022003204C
:201B0C0004E02021012045F8211C024684F8E200002045F8390C0827C5F8FF7FC5F8F37F18
:201B2C0045F8392CBDE8FC81052914BF09200620002584F8E400356070E094F8E17001201D
:201B4C00383D002FC5F81B0004BF0620002102D00021F160032084F8E400032045F8010CBF
:201B6C0031603068800859D294F8E400012503280DD00021404660220523009101F0CAFF43
:201B8C0094F8E400062814BF0A200720D1E702200090002160220523404601F0BBFF0420ED
:201BAC00C7E703F09FF8BDE8FC812249002622480E60012505600E2000F0DAFB022002F0C4
:201BCC00D5FA84F8E45084F8E360BDE8FC81002038600C2578601FE0194800680068014661
:201BEC00202088472C3D41F61D560F2000214FF4C072072345F8010C4046C5F803600225B1
:201C0C00009501F087FF404600214FF4C072072302F09AF80120386084F8E45004F178000C
:201C2C0003F05CF8BDE8FC8139400C4038600C4000A00C402C500C4004800C4034600C4022
:201C4C00A0010010440C0020F8B5414C201D0368B3F1FF3F08BF002301F038FF002876D112
:201C6C003C4E20683468070F04F0FF04802C28BF002401F02BFF4FF0FF3578B1401E07D0FA
:201C8C00401E012802D9801E13D014E08FB112E0381C5CD0801E0ED114340BE03846401E23
:201CAC0055D0801E53D0001F51D0401E03D1163400E00A3465B2162D49DB274827490025D6
:201CCC0001270560264E0F60264C376020680028FCD1274A161D2449244F306820F00300D3
:201CEC0001433868C0080CD2106810F0030F0AD041F003003060106800F003000328FAD1C5
:201D0C0001E041F001011B483160006820B11A4800681846FEF764FC184819490560194F6A
:201D2C000A686FF35B4247EA0200086016490868C0F30130012806D10A681448104040F486
:201D4C0000320A60086020680028FCD1F8BDFEE718130050A0100050840460425C600C40AF
:201D6C00082204430C00684204000020B03F00500040034080012843000120438C21084005
:201D8C00482003400000390104000940FFFFFCFC2DE9F041444C94F8E700ADF1280D0028CA
:201DAC006FD1394F387B01250021242284F8E7507E6884F8E6000823C4F80C6101A802F025
:201DCC0099FF002604F10C00069601ABADF814602E490796324602F089FF2D4904F1300036
:201DEC0001AB324602F082FF2A4904F1540001AB324602F07BFFB868014628468847DFF879
:201E0C009C8025487B7B0078D8F80410C1F381571BB1032F03D184F8E150032F16D0022F87
:201E2C0014D0012F26D103201D4C009031464FF040521C23204601F06DFE009531464FF4D7
:201E4C0000720923204601F065FE13E0022002F0A5F9032F0CBF4FF47A7142F21071114840
:201E6C0000685434B1FBF0F1204602F033FF204602F034FFD8F80000C00802D2304602F0F0
:201E8C008DF90AB0BDE8F08148690000C72B0000852D00002D2F0000B81B0020B03F0050FD
:201EAC0000A00C4094690000440C00202DE9F04707467D68D7F8089090460C4602F04EFF70
:201ECC00AE6A8246002E64D105F1F00002F0E6FB2C620024EC7750466C6202F03BFF02F063
:201EEC003DFF2F4E3378824623B9022002F056F901203070504602F02DFF2A4A1068414683
:201F0C0040F480701060384602F02CF8A862C0B93846414601F08EFDA878D0B9A96805F1D9
:201F2C00B80002F0D3FEE8B9AC621020E8774946284601F099F902F011FF8246307840B3F7
:201F4C0023E0D9F80010886B40F020008863A87810B12046BDE8F087A96805F1B80002F04F
:201F6C00B5FE10B1686ABDE8F0873846414601F061FD1020AC624946E877284601F074F9A7
:201F8C0002F0ECFE8246307818B1022002F0EEF83470504602F0DEFE4FF0FF30BDE8F08794
:201FAC00BA1B0020301000402DE9FC4191EA03084CBF4FF000484FF000084FEAC32545EA9E
:201FCC0052554FEAC2264FEA43077F0D11BF45F0004500210020BDE8FC815FF4E06E1EF1C1
:201FEC00FF0E774555D04FEAC12343EA50534FEAC0224FEA4104640D11BF43F00043002189
:20200C000020BDE8FC81744543D0E419A3FB0501A3FB06E7A2FB06631EEB030E57F100070B
:20202C0051F10001A2FB05631EEB060E57F1000751F10001FF1851F10001C01951F1000127
:20204C004CBF4FF4806E4FF4007E10EB0E0051F1000148BF641C01D4400049415FF44077FB
:20206C00FF37E41BDEBF00210020BDE8FC8117F58067BC420DD24FEAD02040EA41504FEA32
:20208C0041014FEA113141EA045141EA0801BDE8FC810020FF21C900C91D090551EA080160
:2020AC00BDE8FC812DE9F04390460A68D8F800401678814600271D463846ADF1140D531CC6
:2020CC00242E0B6053D112F8016F5B1C4C2E0B600ED1AA68E41C24F00304241D54F8040C94
:2020EC00494601F059FB2968EF600127091A2960462E1AD1E41C24F00304241D54F8040C35
:20210C00E41C029024F00304241D54F8040C002749460390AA68ADF8047001A800F018FC48
:20212C002968EF600127091A2960532E1FD1E41C24F00304241D54F8040CE861C8F800406D
:20214C00288B0090A968EA69D9F800004346FEF76FFCD9F80040002714B12418C9F80040D8
:20216C002968D8F80040091AEF6001272960662E0AD12B8B23B9E41D24F00704083403E04F
:20218C00E41C24F00304241D1FB9E9690E700127EF60C8F8004005B0BDE8F0832DE9F8439A
:2021AC000746D7F80880D8F800007D68066C16F4F06F466426D1F00910D2700952D395F838
:2021CC003C00AC6B401E844288BF041C3846214601F090FEA86B001BA86308E0A96B3846FE
:2021EC0001F088FE014695F82D00A96318B9A86B002837D101E00020A86305F1840002F0C3
:20220C0061FD2FE0F00A0ED3D8F80000002144684160A96B04F00F04202988BF20213846C2
:20222C0001F068FE1AE04FF000094C4602E0A86B401EA863A86B88B13846012101F05AFED4
:20224C00D8F80000446814F00F04C0F80490EED0296B686B491E2963401E6863EC77384671
:20226C0001F03CF8B0090DD3AE6A5EB13846314601F078FEA862A86A314618B93846091D09
:20228C0001F0D8FBBDE8F8832DE9F0471E46904689460746B6F1FF3FADF1480D09D046B103
:2022AC00314909AB6846324602F008FD0220694601E0002103200C918DF834002B4DCDF83E
:2022CC003C902C68CDF8408002F0F4FCEFF3118A2025E4190B9085F311884246494638462B
:2022EC0002F0ECF9031C33D1002E04BF8AF31188002036D002F02AFD0B99064609A8886108
:20230C00204609A902F0D2FC0B9802F0CBFC9DF834000024022802D10C9802F0BFFC8AF3C5
:20232C001188304602F006FDEFF3118385F311880C9810B102F0AEFC0C940B98846183F367
:20234C0011889DF83400002814BF0E9B231C07E00C9818B102F09EFC00200C908AF311887A
:20236C00184612B0BDE8F087D94300009C6900002DE9F843044602F0F1FC81462D48021923
:20238C0092F8ED10491ECFB2002F82F8ED704BD12B4D05EB84052E78698836F07F0788469E
:2023AC001AD1F10911D24FF08054D4F8B801806901464046884704F5DC742068406B014669
:2023CC00404688470228F8D121E000EB8800D0F80011002088471AE04FF08054D4F8B801DB
:2023EC00006A014640468847D4F8B801806A014640468847D4F8B801006B01464046884734
:20240C0001210D4A0D48116001688908FCD306F03F003F2801D0FFF7ABFF687800F03F008C
:20242C003F2801D0FFF7A4FF484602F093FCBDE8F883C046440C00202820086028200840DA
:20244C00A66600002DE9F041064602F087FC2D4D8046A91991F8ED00421C002881F8ED20D8
:20246C004AD1294C04EB8604277807F03F003F2801D0FFF7E7FF607800F03F003F2801D01F
:20248C00FFF7E0FF668837F07F001AD1F80911D24FF08054D4F8B80140690146304688472B
:2024AC0004F5DC742068406B0146304688470128F8D121E005EB8605D5F8001101208847CC
:2024CC001AE04FF08054D4F8B801C069014630468847D4F8B801406A014630468847D4F822
:2024EC00B801C06A0146304688470121074A0848116001688908FCD3404602F02BFCBDE820
:20250C00F081C046440C0020A666000028200860282008402B4AF0B538CAADF11C0D02A9EE
:20252C0038C10CCA4FF0805681E80C0084684568D6F8D0112068C9688847216822488A6B7E
:20254C0010408863206840F2F271416495F83C0095F83D202168C0100DEB800080681043B3
:20256C004863684602F092FB1A4FDFF864E0D6F8D0112B7FDFF854C06A7FA87F496857F89F
:20258C0023705EF82260AA695CF820300D46206801993E433343A8470F490A1F106840F089
:2025AC0010001060086840F001000860A07DFF2806D0E07DFF2803D0086840F44040086089
:2025CC0007B0F0BD686700000DF8FFFF546700004C6700003C67000030100040F8B502F089
:2025EC003DFA02F047FA044604F00C000C2845D0E0081ED201F0BEFE234E376805460120D1
:20260C00014602F08AF831686943884211D21F4C8220B0FBF7F0291A204602F05BFB20460B
:20262C0002F05CFB0120FEF7C3FC204602F036F825E0200922D21648610939BF016821F08E
:20264C000101016841F0010102460160D2F898004FF0805440F00300C2F89800D4F8B801A8
:20266C008069014620208847D4F8B801094C806B2168804701202060206800E030BF02F010
:20268C00F3F900F009FFF8BD94690000500C00208C2108402C2009402DE9F04145688768AF
:2026AC0016460C4602F05AFB0346A86B3246214630B1184602F04EFB4FF0FF30BDE8F081E0
:2026CC00AA6329630024EC7718466C6302F042FB02F044FB1D4E8046307820B9022001F07C
:2026EC005DFD01203070404602F034FB1849086840F4007008603968886B40F4FA60886322
:20270C006878002818BF201C1ED1696805F1D40002F0DCFAB8B9AC633968886B20F4FA60BE
:20272C00886302F01BFB0746307818B1022001F01DFD3470384602F00DFB1022696B286BFA
:20274C00EA77401A2863686BBDE8F081B91B002030100040F8B50D46EEB2290824BF2749A6
:20276C004D40274BB400DFF89CC0195900EA05020CEA020200F4E02C85EA0107BCF5E02FD3
:20278C0000EA070721EA0001C7F3006742EA010201D1510E14D300F4E0210F4310D002F4A4
:2027AC00E027B7F5A02707D0B7F5803704BF22F4003242F4A02203E022F4803242F4C02293
:2027CC001A51114CC10D04D3C5F38052A4F1D0018A55000E10D302F0C1FA290E03D20122E4
:2027EC000021B24002E00122B2401146236893431943216002F0AEFAF8BDC046006000A0D9
:20280C0000100840007F077FD0200240F8B5064602F0A4FA234A117819B102F09BFA012428
:20282C003EE00124147002F095FA1F49086EB1F86820730805D3038813435B0828BF022491
:20284C002CD21A4D05F10C073B685B0826D3EC633B685B08FCD273083CBF0021818007D36A
:20286C00848042F0010201F16007A1F868203868B1083ABF0021C180C480F10838BF00248D
:20288C00048102F060F902F067F9286840F0400028602868002420F04000286002F008F903
:2028AC002046F8BD29100020540D002000500C40F0B520480127F84201D001F095F8204D50
:2028CC00204F214EBD4206D203CD0478A4003459401CA047F6E71D48002800D08047164D13
:2028EC00164FBD4202D210CDA047FAE7F0BD03251BE0416808300A1C2A400BD11A1C2A4032
:20290C00AB4305D0046804300C600431043BF9D1131C05D0047801300C700131013BF9D139
:20292C00021C2A4001D0A84304300368002BE0D17047C046FFFFFFFF000000000000000013
:20294C00D86B0000386C0000946B000059C501102DE9F843002A894607464CBF47F6FF7503
:20296C00151C002F08BF002033D03888002808BF002403D02A4600F0B5F90446281B002898
:20298C0026DD388828B1291B484613A201F0BAF92418B868E0B1D7F804802E1BB8F1000F23
:2029AC000DD0404601F0E6FF401DB04207DC291B48460AA2434601F0A5F924182E1B122E45
:2029CC0006DBBB68291B484606A201F09BF924182046BDE8F883C0463A2000C0222573222A
:2029EC002C2000C06C696E652025643A2000002A4AD05FEA000C8B071CD1830722D1102A45
:202A0C0008D370B4103A78C978C0103AFBD270BC103238D0042A2CD3082A05D30C2A24BF0B
:202A2C0008C908C008C908C008C908C092072AD0920F22E00B780370491C401C521E22D070
:202A4C008B07F7D1C30714D18307D8D0121F12D308C903801B0C4380001D121FF8D20AE0D9
:202A6C0008C903701B0A43701B0A83701B0AC370001D121FF4D2121D05D00B780370491C4B
:202A8C00401C521EF9D16046704770472DE9F8432020EFF3118780F31188214CA0680121D2
:202AAC0002F0F0F84FF001094FF0000865692168A4F81C906A1A2168A4F81E80461B401AFF
:202ACC00904227D387F3118840462D18361A4846294602F0D3F8B042F7D92021EFF31187B9
:202AEC0081F31188E18B012903D14046294602F0C5F8B0F1FF3F06D0A169801B814238BF9B
:202B0C00081C291801E0A069411902F0B3F8A4F820902560A4F81C8087F31188BDE8F88327
:202B2C00780100208B4208BF824204D90B1C021C002100207047002B08BF002A0BD10B1C5F
:202B4C00021C00210020002B08BF002A1CBFC943C04300F09EBAF0B51C4615460B460246C1
:202B6C0000200021B4FA84F6202E04BFB5FA85F62036B3FA83F7202F04BFB2FA82F720379A
:202B8C00F61BB6F1200727BF05FA07F400257F42B4403EBF25FA07F73C43B540A34208BF56
:202BAC00AA4201D3521BA341404149416D0845EAC4756408761EF1D5F0BD70472DE9F84395
:202BCC00DFF87C900F4604464FF0FF31484602F07DF8DFF870801D4800210AE0FF2A07D0CC
:202BEC000368934202D958F822600EB1002421E0491C1FB117F82120FE2AEFD100202060EB
:202C0C00012660600546A0600EE0FF290BD0636806FA01F048F8214018430B49606012683F
:202C2C00204601F0EFF96D1C27B107EB85021178FE29EAD1484602F019F82046BDE8F883ED
:202C4C00781B00208C1A0020007FC767B01B00202DE9F04107467C68BE6804F1F00001F0E3
:202C6C001DFD1D49306809688069000923D202F075F81A4D8046287820B1022001F076FA58
:202C8C0000202870404602F065F832681449906B20F020009063086820F480700860206A20
:202CAC00616A2569626A401A2062216A2B4638469847BDE8F0814FF4FA70B0FBF1F1012934
:202CCC0098BF0121F034204602F004F8204602F005F8BDE8F081C04694690000BA1B002094
:202CEC00301000409EB513460C461F4A1D4912880988824206DB13A219460346204601F0F7
:202D0C0001F89EBD194A1788814207DB01F0E6FC42681946204600F0F5FF9EBD002F08BF35
:202D2C000BA2E9D00094002B48BF47F6FF73104F002101933C6802910E496A46A0470298D9
:202D4C009EBDC0467B6D6F64756C652325647D007B6D6F64756C652D726F70653A25787DA4
:202D6C0000C046C0D0690000D26900008A050000CC690000F94200002DE9984301F0EEFF3F
:202D8C001F4CDFF87880814604F1E000007850B94446A0680146022088470746102000F099
:202DAC0025FF2FB320E000F03FFC002820460FD1144909683222B2FBF1F101B9012100F1EA
:202DCC003004204601F086FF204601F087FF0FE044460022A16880F8E020022088470746A0
:202DEC00102000F003FF1FB1A068014603208847484601F0AFFFBDE89883C04648690000F0
:202E0C00440C002094690000F0B58468204A637DA17D257DADF1140D022643F00043FF2919
:202E2C0042EA050700934568019708D0E07DFF2805D041F000410243029104260392FE211D
:202E4C0005F140004DF826106946FFF7B7FEE864E86C002808BF002018D0617D0F2201F0C4
:202E6C005DFAE86C217D102201F058FAA17DFF290BD0E07DFF2808D0E86C112201F04EFA4B
:202E8C00E86CE17D122201F049FA012005B0F0BD0000C0A02DE9F04107467E68BD6801F099
:202EAC005DFFB16A39B929688969090903D201F051FFBDE8F0810024B46201F04BFFA87D42
:202ECC00FF2806D0E87DFF2803D03046294600F0CBF92A681049906B20F020009063086878
:202EEC0020F48070086001F039FF0C4D8046287818B1022001F03AF92C70404601F02AFF27
:202F0C00716A306A3569726A401A3062316A2B4638469847BDE8F08130100040BA1B0020D6
:202F2C001CB5042001F008FC022818D0032816D016480068C0F38150032814BF41F2883243
:202F4C004FF47A721248144C016854342046B2FBF1F101F0BFFE204601F0C0FE1CBD0320D7
:202F6C000C4C009000214FF040521C23204600F0D1FD012000214FF40072092300902046EF
:202F8C0000F0C8FD022001F0F1F81CBDB43F00509469000000A00C40440C00202DE9F843AE
:202FAC00884601F0DBFE1B4D6C78814601F024FCE60006EB4416761906F1B8073860A8880B
:202FCC00A6F8BC00A888401CA880B8F80E00A6F8BE0008F110004EC808374EC70FC887E804
:202FEC000F00AE7800271EB92878A04208BF0127641CE4B2202C1CBF6C70002002D10020F5
:20300C006870044607B12C70A870484601F0A2FEBDE8F88308020020002213460A46194683
:20302C0071B510F0030F0BD0002A82BF00F8011BB2F1010210F0030FF6D1002A08BF71BD54
:20304C0011F0FF0141EA0121042A18D341EA0141082A0FD30E46102A08D30C460D46B2F1CB
:20306C000F0312F00F0272C0103BFCD812F0080F18BF42C012F0040F18BF40F8041B12F097
:20308C00020F18BF20F8021B12F0010F18BF017071BD704738B544688568E06C01F02EFBDC
:2030AC0018482968184A8B6B184088631068C0680146286888476868FFF75AF904F16800BC
:2030CC0001F0D0FD04F1840001F0C8FDA07818B904F1B80001F0BEFD607818B904F1D40043
:2030EC0001F0B8FD04F1F00001F0B0FD01F036FE0021217001F02EFE04F1540001F08EFAE5
:20310C0038BDC0460DF8FFFFD001001038B519491A4C00204822C1F8F30F94F8E200C1F8A3
:20312C00FF2F20B3012817D0022807D003281ED151F8310C00F024F80B2016E051F8315CCE
:20314C002846FEF755F940F2FF50A84202D8801CA842F1D2082008E051F8310C00F034FA70
:20316C00054800780028E7D0052084F8E400FEF7A9FC38BD39400C4056690000440C002097
:20318C0038B51A4CA0F5C060D4F8B810C4F8D4000029B8BF49420028B8BF4042814220DAEE
:2031AC00B4F8BC00124D30214FF47F4208230090284600F0AFFCB4F8C00004214FF4F80255
:2031CC0012230090284600F0A5FCB4F8D00020214FF440620A230090284600F09BFC0120AA
:2031EC0000E0002084F8D80038BDC046440C002000A00C402DE9F8438146EFF31188202045
:20320C0080F31188174D154C134F012605F11C000660A4F114000660F86A016A14208847F1
:20322C00D9F81000810C14BF000C04202060386802682321002090470948066054F8180C25
:20324C0020F4C02040F4803044F8180C2E6088F31188BDE8F883C04684010010182009404C
:20326C00800224430000244338B50C462268916B054621F020019163E86C217D012200F0B7
:20328C006DFCE86C217D012200F0DCFDE86C217D002201F043F8E86CA17D002201F03EF8E0
:2032AC00A878012806D005F1B8004FF0FF3101F00DFD03E0216888690009FCD2E86C217DA5
:2032CC00102201F02BF8A17DFF2906D0E07DFF2803D0E86C112201F021F838BD2DE9F0415C
:2032EC0006467568B46801F039FDA96B31B30027AF6301F02FFD22681249906B20F4FA60BA
:20330C009063086820F40070086001F027FD0E4C8046207818B1022000F028FF2770404666
:20332C0001F018FD696B286BEF686A6B401A2863296B3B4630469847BDE8F08101F00AFD8B
:20334C00BDE8F08130100040B91B0020034670B52020EFF3118580F3118818680143164883
:20336C0000681960C418C01801F06CFC08BB01F0EDFC0646204601F061FC0446A169E26917
:20338C00184601F09BF96061606960B1204601F051FC01202074E06808B101F07FF9A068D8
:2033AC00294601F043FC85F31188304601F0C2FC70BD85F3118870BD9C6900002DE9F8436B
:2033CC000024002B16460F468046254606D5002FC3F1000302D57F42761E2D259946384614
:2033EC00494600F0D1FC0CA0405CB7FBF9F7002F04F1010408F8010DF1D1A64205DD302177
:20340C00301B401E08F8011DFBD10DB108F8015D4046BDE8F883C0463031323334353637A9
:20342C0038396162636465660000FEE730B5401E4FF00004ADF12C0D0AD0401E04D0401E0E
:20344C0020D1FEF73FFB1DE000F000FA044619E001A821462422082301F04CFC06940D4D68
:20346C00ADF8144009490794012201AB05F1780001F03CFC064A23462C2105F19C000093C9
:20348C0001F048FC20460BB030BDC0467535000019310000440C0020164880B507683FB37F
:2034AC0015498B6803EA5300C00E21D2134A106880081DD2486880081AD21068096810F055
:2034CC00050F4FEA114101F0F00101F5E0710AD1B9420DD2190F38BF40F00100D90E38BF35
:2034EC0040F0040003E0B94202D920F00500106080BDC04628500940AC3F005000000940C6
:20350C00F8B5844640F6FF741CF8013B002210E0481B401E10F8015B7F1E01F8015BF9D13C
:20352C0003E01CF8010B01F8010B521C5B08082AEADA5808F5D21CF8010B1CF8015B05F004
:20354C000F07FF1CC5F30315122F45EA001508D11CF8016B300A24BF1CF8010B60F3DF16FB
:20356C00BF19AC42D4D1F8BD1648144A144908B5E4300078801E0A2807D8DFE800F018142B
:20358C00100614100614100609C001F0ABFB11E010688008FCD250688008FCD20AE008682E
:2035AC008008FCD306E008688008FCD202E010688008FCD3FEF786FA08BDC04634600C402B
:2035CC0038600C40440C0020134910B50A684BF2F5214843040AC2F38140012806D100F0A6
:2035EC0037FF00F011FC604304EB90540C4901F1E500007830B90948006820F07F402418C5
:20360C00640802E0002081F8E50006480460210C41600123836010BDB43F005010200940C2
:20362C00440C00203C600C4008B5012001F084F801281DD00F4834210122002300F084FB64
:20364C00002808BF002014D00B48006800F028FF01F0D2F80A4A93681168D060C01A074BBA
:20366C00A1EB91014343180C884228BF011C1160012008BD00A00C408000001040420F0044
:20368C00941B002098B5154B1B1D18680004070C21D000F0DDFE104991F90720824205DD67
:2036AC0010F1800FB8BF6FF07F00C8718C88BC4210D80A68D3F8D40F801A801C1F2888BF02
:2036CC001F203F1B4008C7404FF6FF70E719B84238BF071C8F8098BDA81B0020301009405E
:2036EC0070B50C4620B141680122A240114201D1022070BD0D4E104B914300254160305D77
:20370C0043F82450FF2804D00949096851F8201001E044F020410748FFF71CF820464FF043
:20372C00FF3101F017F8284670BDC0463C1B0020B41B0020007FC7678C1A00201549096804
:20374C0020280ADC202819D00B380FD00D380FD0001F0FD0C01E0FD01AE0243810D0001FA8
:20376C0010D0401E10D0401E10D011E04868704788687047C868704708697047486970476B
:20378C0088697047C8697047086A7047486A704700207047F0010020F8B50646B088154687
:2037AC000F46FFF79FFA0446002D02D4281B0A2806DB3368291B38460BA200F0A3FA2418A3
:2037CC00B08978B1002D06D4B06801F0D3F8291B401D884206DCB368291B384603A200F0E1
:2037EC0091FA24182046F8BD257000C0282725732729000030B500213C220823ADF1540DC1
:20380C00684601F00FFA0F4C0F4904F1840000236A4607904FF4806008900320069004F1F5
:20382C00340001F0FBF90021182208230FA801F045F904F1200528460FA900F0B1FD256094
:20384C0015B030BDC0070020790D000038B5134D95F8E100002410B91148007860B101F0C2
:20386C007DFA95F8E310002906BF012185F8E310012401F06FFA0CB1002038BD022000F062
:20388C008DFC0E20FEF7DEFD00F080FE01280EBF0120002085F8E20038BDC046440C002026
:2038AC00566900000246F8B5084611464C6820381DD0401E18D0401E18BF6FF001001AD1E4
:2038CC008D6801F04BFA0C4E074630680069014628688847B0F1FF3FF7D100253846A56311
:2038EC0001F038FA2846F8BD0021084601E00121002084F82D10F8BDD0010010012838B57F
:20390C001ED1012000F018FF01281BD000F08CFF0D4D0E480122322305F1E00100680A7014
:20392C00B3FBF0F404B914463035284600F0B6FE2846214601F0CEF9284601F0CFF901E0C6
:20394C0000F046FB002038BD440C0020946900007CB5114D04460E46600807D3B0B20021B6
:20396C00009001220B46284600F0D4F8A00807D3B0B20090002102220123284600F0CAF810
:20398C00E00807D3B0B2009000210C220223284600F0C0F87CBDC04600A00C402DE9F0416B
:2039AC0006467568B76801F0D9F90E4C8046207820B1022000F0DAFB00202070404601F059
:2039CC00C9F93968886B20F4FA608863286B696BEB686A6B401A2863296B30469847BDE82A
:2039EC00F081C046B91B0020F8B506460F4D104F7388002417E0A20002EBC40292195168CD
:203A0C009068D26852B9AF420BD00A7855F822200346491C08461946904701E0FEF7E7FF92
:203A2C007388641CA4B2A342E5DCF8BD946B0000A06B000070B544680D4604F1F00000F04B
:203A4C002DFE0D4A267F607F0C49A36912688019C01D80B2F03445436943B1FBF3F01018C2
:203A6C006330B0FBF2F1491C204601F033F9204601F034F970BDC0469469000040420F00EC
:203A8C00F8B51746024610481E4603680C4600250AE0C2F30E0003EB8002508801F02EF91D
:203AAC006D1C46F8040B1288104601F027F90028EFD046F8040B6D1C56F8041D3846A04792
:203ACC0008B96D1EF8D1F8BDC8690000104A1068C0F30F314BF69A10884207D111680B20E9
:203AEC00B0EB117F14BF0020042070472430884208BF01200BD04BF64130884208BF03207A
:203B0C0005D0213888420CBF02204FF0FF30704718130050B0B500EB4100102B04AF00F5A0
:203B2C00007403D3103B00F50174120C3D889D4045EA024500F092FF002700B90127064A6B
:203B4C00394610680028FCD025600120106009B100F08AFFB0BDC04600800C4038B50E4BA0
:203B6C001B680D461446AB4204D90C4951F82510884201D0022038BD01F0F0F80849103947
:203B8C000B68AC400122AA4093431C430C6001F0E1F8002038BDC046B01B00208C1A002076
:203BAC00E02002402DE9F84300F08EFF0D4D2F688046A7B1DFF830900024012606FA04F004
:203BCC0018EA000F07D059F8240020B1036813B1214698472F68641CE4B2BC42EED3BDE825
:203BEC00F883C046B01B00208C1A002070B5104C0646204600F07AFF0025B0B9204600F007
:203C0C00B6FF0446A06806420AD0E068226900210346304698470546012D08BF012005D0A7
:203C2C00204600F0A6FF041CECD1284670BDC046440C00200CB54FEA41034FEA5353B3F5CA
:203C4C004073FF3B44BF00200CBDD3F11F030FD94FEAC12242F0004222FA03F20B2B3EBFDD
:203C6C001533D840024300294CBF5042101C0CBD00294FF0004058BF401E0CBD0C488546D3
:203C8C000C4885446F4607208743BD460A486F4607600A48002803D07946491D8E46004757
:203CAC00FEF706FE00F0E4FD00F0B4FFFEE7C046004C00200004000018100020E14A0000BD
:203CCC0080B58788ADF1300DC7B104930E9F0597109B07930F9F129B0697090C0993119FC3
:203CEC00149B0897139F0B9342EA01420A97044F80683B6803926946082298470CB080BDE6
:203D0C00B06900000CB4F0B505AF061C0C4627F00303ADF1040D03F1040304D03068002896
:203D2C0018BF051C00D100253A68284600F072FE844238BF601E15B131680918316001B01C
:203D4C00BDE8F04002B07047F8B51E4640181446102E02D3103E801C240C054600F07EFE72
:203D6C00002700B9012707483B460768002FFCD02D88012101600BB100F076FE2C403441BC
:203D8C00A0B2F8BD00800C401CB50A1C17D000230124E407A04238BF041C944201D9520038
:203DAC00FBE790425B41904228BF801A914201D25208F6E7191C021C081C111C1CBD00B149
:203DCC00C843FFF766F91CBDF8B500F089FE002808BF002013D00A480768002F0DDD09485D
:203DEC00046800250020294600F0FCFD0646F068A0476D1C7F1EB060F4D14FF0FF30F8BD05
:203E0C00A8690000AC6900000D4938B5091DD1F8EC3209681B3800FB00F409060A1619061F
:203E2C00091604FB01F543F307214143C910604301EBA521424301EBA24000EB234038BDBC
:203E4C00A010005084460B4880B5174602688A42604604D9084A52F82120904201D002204C
:203E6C0080BD002307B10123044A0020E03A535480BDC046B01B00208C1A0020E020024095
:203E8C000C4810B50178ADF1280D01290FD001240470002124220823684600F047FF06484B
:203EAC0000216A468DF81840343800F03BFF0AB010BDC04628100020C80D002038B50B4C94
:203ECC002068B0F1FF3F10D10021094D216004E0896888472168491C21608A00284602EB9E
:203EEC00C102801801680029F2D138BD2C0E0020DC680000F8B50C4E446885680F4608E096
:203F0C00216B0870606B216B7F1E401C6063491C21633FB130680069014628688847B0F15D
:203F2C00FF3FEDD13846F8BDD00100102DE9B0430F46044600F021FE04F1280292E8000312
:203F4C004B464246FEF7EEFD05460B462A464046494600F0B1FC17B1303484E80300284695
:203F6C00BDE8B083F8B5446885680F1C11D00A4E3068216A826909782868904748B1216A39
:203F8C00606A7F1E01F10101216200F101006062EED13846F8BDC046D0010010B0B50D46F2
:203FAC000949441800F05AFD002700B90127074A394610680028FCD025600120106009B1EC
:203FCC0000F052FDB0BDC04600A00C4000800C4008B503200021FFF7BBFC012000F0ACFB05
:203FEC0018B10648006800F05BFA00F005FC044B083B586000F02CFA186108BD80000010D2
:20400C009C1B00200A4B10B51B6802F0FF04A34206D9084C02F0FF0354F82330984201D0D5
:20402C00022010BD08461146FEF794FB002010BDB01B00208C1A002000B50021302208236B
:20404C00ADF1340D01A800F069FE0020ADF81C00044A00900448162101AB6C3800F05AFE9B
:20406C000DB000BDD5440000C80D002000B5002130220823ADF1340D01A800F04FFE002074
:20408C00ADF81C00044A009004481D2101AB503800F040FE0DB000BDAD480000C80D002025
:2040AC00094910B500200A4C08600120C86114342060216844F8280C04480068016A1420A1
:2040CC008847206810BDC04600002443B00100101820094080B58788ADF1300D87B10E9FFD
:2040EC000493090C0F9B0597109F069342EA01420797044F80683B68039269460422984746
:20410C000CB080BDB069000070B5044604F128020CCA0846002100F0CFFB04F1300292E853
:20412C0060002D1846EB0106290C3004014300F0ADF8383484E8600070BD704709490204E0
:20414C0080B5120C41F8082CC0F3074041F8040C0120086004480768002FFCD00020086089
:20416C0080BDC04644600C4084088C4310B5044600F0F4FD084BE21892F8E810491EC9B204
:20418C0082F8E81021B99A680121A1408A439A6000F0E0FD10BDC046440C002038B50446B4
:2041AC0000F0DCFD084A02F108031D680121A14012192943196092F8E810491C82F8E810E9
:2041CC0000F0C8FD38BDC046440C0020084A08B51268824298BF002009D901B90549064BB4
:2041EC00820002EBC00298180268D268904708BD2C0E00205C680000DC6800000A4951F894
:20420C00140C20F0800040F0400041F8140C51F8180C20F0080041F8180C086820F00800AF
:20422C000860086800F054BB18100C4010B500F089FD00F08BFD032000F0E8FC06481030EF
:20424C00006830B1034C204600F020FC204600F023FC10BD972A0000A401002008B500F0D3
:20426C003FFC012801D0FFF7E0F8074800F0CAFC00F09EF900F0C2FC00F0BCFC00F0B6FCAB
:20428C0000F0B0FC08BDC0463942000010B50C4600F0B2FA211AB1F1004F08D8011B091D2F
:2042AC00C90F05D1001DA04288BF041C00E0041D0148046010BDC04618200940014610B5D0
:2042CC001C20ADF1280D00900D980190064802AA00F084FC041C04D002A900F065FA20463F
:2042EC0000E000200AB010BDA068000010B50B4604466168002908BF01200CD0206806A2DD
:20430C00FFF700FDA1680918A16061680029C4BF091A6160002010BD2573000008B5084B85
:20432C001B688B4204D9074B53F82130984201D0022008BD0846114600F00CFA002008BD44
:20434C00B01B00208C1A0020084808B5FDF738F9FFF7B4FD00200146FFF738FF044908607E
:20436C00FFF748FA00F036FC002008BDE06700001002002038B52020EFF3118580F31188C8
:20438C00064CA068002100F07DFC6169081AA169814238BF002085F3118838BD78010020BE
:2043AC0010B504461820ADF1200D00900020019005480B46214602AA00F008FC204602A9E8
:2043CC0000F0ECFA08B010BD80680000034610B52020EFF3118480F31188187C022808D126
:2043EC00184600F027FC002018749868214600F01DFC84F3118810BD80B58788ADF1300D28
:20440C0067B10E9F0493090C059742EA0142044F80683B6803926946022298470CB080BDF6
:20442C00B069000010B50C46116801290ED9491E1160016831B900F0E5FA38B1204600F07D
:20444C00D9FA10BD0268521C02600C7010BD70470748816841F31002064991F900100068A7
:20446C00A0F5407041430811121A803210127047285009400C13005010B5044610460A46B2
:20448C00211C14BF0028022006D0C8608A6003480B6100F055F8002010BDC046440C002077
:2044AC0070B5054600F0DAFA002400B90124054E30680028FCD0A847012030600CB100F08E
:2044CC00D3FA70BD00800C4010B500F042FB0648064C007818B12046403000F0C7FB206827
:2044EC0000B1804710BDC04628100020540D002080B58788ADF1300D4FB1064F090C42EAD7
:20450C00014280683B6803926946002298470CB080BDC046B069000080B58788ADF1300D45
:20452C0057B1090C054F049342EA014280683B6803926946012298470CB080BDB069000015
:20454C0038B50D46044600F010FB00212A462346116059685160596801B921460A605A60E7
:20456C0000F0F8FB38BDFEE7074810B50468FFF7ADFA04F07F04012804D100F049F9022884
:20458C0008BF641C204610BD4413005006490868002818BF012005D1044B402001221860EF
:2045AC000020CA617047C04604800C402C500C40074808B51030006828B1034800F066FA27
:2045CC00024800F069FA08BD694600000D490000A4010020074810B51030006830B1044CB6
:2045EC00204600F053FA204600F056FA10BDC04647410000A4010020074908B5283090E869
:20460C000C000020FEF78EFA002908BFB0F1FF3F88BF4FF0FF3008BD907E000038B5054656
:20462C0000F09CFB04460448294600F0CBF8204600F090FB38BDC046440C0020002804BFF8
:20464C0000217047011C1F2111F58061491E4000FCD3090541EA10310005704710B5064C6F
:20466C00206900F0AFFA0146A06800B9E160A068401CA06010BDC046A4010020054808B5BD
:20468C004168054801220838026048698969884708BDC046E40100200C2009400021818278
:2046AC000449C0684969814203D10348006800F015BB7047780100209869000003461046CD
:2046CC000A4619460B6818400B6813409A4208BF104310B10A6882430A60704701460648EA
:2046EC00006800E00068002808BF002002D002899142F7D17047C0461010002010B50446EB
:20470C0007E090FAA0F0B0FA80F0C1B22046FEF7E7FF60680028F4D110BD02294FF00002D0
:20472C0004D0012808BF4FF47A7203E0012808BF40F2EE2210467047042807BF4FF0C04225
:20474C001D234FF080521C2301483421FFF7FCBA00A00C40002948BF0021044A02EB80007B
:20476C00026861F3050202607047C046001008400349044809680160034800F0CDB8C046C1
:20478C00E0200240E0200260081B0020102808D3044B1038012100F01F024009914043F8F4
:2047AC002010704780E200E010B504460120A080086903490968E0608847A06010BDC04664
:2047CC00AC6900000A681AB94A6842600A6801E04B685360496801B901460A6070470CB4D3
:2047EC0080B502AF3A6827F003031B1D00F0CBF9BDE8804002B07047044801684368026884
:20480C008A42FAD1080440EA134070470820094004480068C0F302400428C8BF4FF0FF307A
:20482C007047C0469412005008B503200121FFF78FF8FFF7E1FF0149086008BD9C1B002016
:20484C00044908B591F8E60018B1D1F80C0100B1804708BD440C0020044900220A704068F6
:20486C000270014802707047BA1B0020B91B00200449B1F1FF3F07BF0020011C0868091D99
:20488C00FFF762BDFFFFFFFF012814BF002140F2FF71024A002011607047C046000004603E
:2048AC0008B500F05CF90348001D006800B1804708BDC046540D002030B502FB01F403FB81
:2048CC0000444FF00005E2FB00542146284630BD04480068024AC07846F2080111507047C0
:2048EC0000100840C80D002004480068024AC0784FF4C0411150704700100840C80D00207E
:20490C0004498868401E886003D10869C96800F055B97047A40100202022EFF3118382F3EB
:20492C001188426A1143416283F3118800F0CAB9034804490068814201D0FFF714BE70479A
:20494C0098CA01107047282010B50446FFF742FE032000F05BF9204600F05CF910BDFEE7D0
:20496C00034A1168506813688B42FAD17047C046082009404FF0FF31421E12F8010F491C1E
:20498C000028FAD10846704708B500F013F90248006800F097F908BD84010020024603482B
:2049AC00002100681160801800F000B99C69000000B50A21ADF12C0D684600F0F3F80BB0B0
:2049CC0000BD7047014602480068FEF7BFBCC046C0070020042808B502D11046FDF79AFD64
:2049EC00002008BD00B9024800EB01107047C046900F0020024908B50968884708BDC04638
:204A0C00BC690000024808B50068804708BDC046C06900000EB501930023009301ABFCF78F
:204A2C0007F80EBD01461628A8BFA0F1200108467047006801092CBF042000F003007047D2
:204A4C00D0F80320C31D08461946FDF7D0BF08B500F093F8000C0904084308BDEFF310807C
:204A6C0072B6704700207047EFF3108062B67047002070470148083000687047440C00204C
:204A8C000149ED31085C7047440C00200149091F08607047A40F0020014908607047C04644
:204AAC00A40F0020D0F8032008460021FEF7B8BA01490020087070472910002001B9014960
:204ACC0000F06CB8F4680000014880687047C046C801002008B5FDF7B7F8FFF729FF08BD40
:204AEC000148C0887047C046F00100200168002001B90120704708B50368DB69984708BD20
:204B0C000146002288888A8070470146012288888A8070470EB56B46FEF7B2FF0EBD406887
:204B2C00D43000F0A3B84068B83000F09FB80120FFF748BF0220FFF745BF4FF0FF307047E4
:204B4C004FF0FF3070471620FFF720BE1D20FFF71DBE162000F01EB8162000F017B81D20DE
:204B6C0000F018B81D2000F011B800F0F7B8006870470068704700207047FFF7F1BE0020FA
:204B8C00704701207047FFF745BF7047DFF800F0DDB20110DFF800F099B20110DFF800F078
:204BAC00F1C50110DFF800F00DC30110DFF800F0F5B80110DFF800F067BE0110DFF800F031
:204BCC004DC20110DFF800F049C20110DFF800F039C60110DFF800F055C00110DFF800F03B
:204BEC0005C40110DFF800F009C30110DFF800F03DC20110DFF800F08DC20110DFF800F066
:204C0C0095B70110DFF800F081C60110DFF800F045C00110DFF800F0D1C70110DFF800F0F8
:204C2C0025B10110DFF800F0D9C10110DFF800F0A5B90110DFF800F021C10110DFF800F058
:204C4C00D5C20110DFF800F013C10110DFF800F0B9C20110DFF800F0E1C20110DFF800F05F
:204C6C00E9C20110DFF800F061C20110DFF800F041AC0110DFF800F0BDBE0110DFF800F092
:204C8C000DA80110DFF800F095C00110DFF800F0F9BF0110DFF800F0BDC20110DFF800F067
:204CAC0019A70110DFF800F015B60110DFF800F0B5C10110DFF800F0E5C10110DFF800F0E1
:204CCC0021BA0110DFF800F021B30110DFF800F0CDA00110DFF800F0C1C20110DFF800F0C9
:204CEC00E3BF0110DFF800F099C80110DFF800F079B50110DFF800F085C10110DFF800F0D1
:204D0C00E9C70110DFF800F085B00110DFF800F0CDC10110DFF800F029AF0110DFF800F0DC
:204D2C003DC10110DFF800F009B70110DFF800F0C1C10110DFF800F049BA0110DFF800F0C4
:204D4C00E1B50110DFF800F0D5C00110DFF800F0F5C00110DFF800F019C20110DFF800F02C
:0C4D6C0049C10110DFF800F029B401106B
:204D780000415F696E697469616C697A6564506172616D733A20756E696E697469616C69F1
:204D98007A656420506172616D732073747275637400486561704D696E5F637265617465FA
:204DB8002063616E6E6F7420686176652061207A65726F2073697A652076616C75650048B3
:204DD8006561705374645F6372656174652063616E6E6F7420686176652061207A65726FBF
:204DF8002073697A652076616C756500486561705374645F616C6C6F6320616C69676E6DD8
:204E1800656E74206D757374206265206120706F776572206F6620320048656170537464A5
:204E380020696E7374616E636520746F74616C4672656553697A6520697320677265617455
:204E58006572207468616E207374617274696E672073697A6500486561705374645F616C5C
:204E78006C6F63202D2072657175657374656420616C69676E6D656E742069732067726564
:204E980061746572207468616E20616C6C6F77656400415F696E76616C69644C6F67676506
:204EB800723A20546865206C6F6767657220696420256420697320696E76616C69642E0086
:204ED800415F63616E6E6F74466974496E746F4172673A2073697A656F6628466C6F6174B8
:204EF80029203E2073697A656F66284172672900415F6E756C6C506F696E7465723A205012
:204F18006F696E746572206973206E756C6C00415F696E76616C6964526567696F6E496479
:204F38003A204D505520526567696F6E206E756D6265722070617373656420697320696E4D
:204F580076616C69642E00415F756E616C69676E656442617365416464723A204D50552042
:204F7800726567696F6E20626173652061646472657373206E6F7420616C69676E6564204F
:204F9800746F2073697A652E00415F636C6F636B44697361626C65643A2043616E6E6F748C
:204FB80020637265617465206120636C6F636B20696E7374616E6365207768656E204249A6
:204FD8004F532E636C6F636B456E61626C65642069732066616C73652E00415F62616454C2
:204FF8006872656164547970653A2043616E6E6F74206372656174652F64656C65746520E0
:205018006120436C6F636B2066726F6D20487769206F7220537769207468726561642E00D5
:20503800415F6E756C6C4576656E744D61736B733A206F724D61736B20616E6420616E648F
:205058004D61736B20617265206E756C6C2E00415F6E756C6C4576656E7449643A20706F08
:2050780073746564206576656E744964206973206E756C6C2E00415F6576656E74496E55A6
:2050980073653A204576656E74206F626A65637420616C726561647920696E207573652E99
:2050B80000415F626164436F6E746578743A206261642063616C6C696E6720636F6E746578
:2050D80078742E204D7573742062652063616C6C65642066726F6D2061205461736B2E0033
:2050F800415F70656E645461736B44697361626C65643A2043616E6E6F742063616C6C200D
:205118004576656E745F70656E642829207768696C6520746865205461736B206F7220535D
:205138007769207363686564756C65722069732064697361626C65642E004D61696C626FC2
:20515800785F63726561746527732062756653697A6520706172616D65746572206973205D
:20517800696E76616C69642028746F6F20736D616C6C2900415F6E6F4576656E74733A20E8
:20519800546865204576656E742E737570706F7274734576656E747320666C6167206973CB
:2051B8002064697361626C65642E00415F696E7654696D656F75743A2043616E27742075E1
:2051D80073652042494F535F4556454E545F41435155495245442077697468207468697350
:2051F8002053656D6170686F72652E00415F6F766572666C6F773A20436F756E7420686145
:205218007320657863656564656420363535333520616E6420726F6C6C6564206F766572B3
:205238002E00415F70656E645461736B44697361626C65643A2043616E6E6F742063616C29
:205258006C2053656D6170686F72655F70656E642829207768696C652074686520546173CD
:205278006B206F7220537769207363686564756C65722069732064697361626C65642E00F6
:20529800415F73776944697361626C65643A2043616E6E6F742063726561746520612053A6
:2052B8007769207768656E205377692069732064697361626C65642E00415F6261645072C6
:2052D800696F726974793A20416E20696E76616C696420537769207072696F7269747920F1
:2052F80077617320757365642E00415F626164546872656164547970653A2043616E6E6F42
:2053180074206372656174652F64656C6574652061207461736B2066726F6D20487769203B
:205338006F7220537769207468726561642E00415F6261645461736B53746174653A204363
:20535800616E27742064656C6574652061207461736B20696E2052554E4E494E47207374A5
:205378006174652E00415F6E6F50656E64456C656D3A204E6F7420656E6F75676820696EFE
:20539800666F20746F2064656C65746520424C4F434B4544207461736B2E00415F7461738D
:2053B8006B44697361626C65643A2043616E6E6F74206372656174652061207461736B208D
:2053D8007768656E207461736B696E672069732064697361626C65642E00415F6261645059
:2053F80072696F726974793A20416E20696E76616C6964207461736B207072696F72697477
:20541800792077617320757365642E00415F62616454696D656F75743A2043616E277420BC
:20543800736C65657020464F52455645522E00415F626164416666696E6974793A20496EC2
:2054580076616C696420616666696E6974792E00415F736C6565705461736B44697361624D
:205478006C65643A2043616E6E6F742063616C6C205461736B5F736C6565702829207768EB
:20549800696C6520746865205461736B207363686564756C65722069732064697361626C3C
:2054B80065642E00415F696E76616C6964436F726549643A2043616E6E6F7420706173738C
:2054D8002061206E6F6E2D7A65726F20436F7265496420696E2061206E6F6E2D534D502065
:2054F8006170706C69636174696F6E2E00415F756E737570706F727465644D61736B696E06
:20551800674F7074696F6E3A20756E737570706F72746564206D61736B53657474696E67C6
:205538002E00415F7A65726F54696D656F75743A2054696D656F75742076616C75652061DF
:205558006E6E6F74206265207A65726F00415F696E76616C69644B65793A20746865206BD7
:205578006579206D7573742062652073657420746F2061206E6F6E2D64656661756C7420D8
:2055980076616C756500415F626164436F6E746578743A206261642063616C6C696E67208F
:2055B800636F6E746578742E204D6179206E6F7420626520656E74657265642066726F6D26
:2055D800206120686172647761726520696E74657272757074207468726561642E00415F51
:2055F800626164436F6E746578743A206261642063616C6C696E6720636F6E746578742EB9
:20561800204D6179206E6F7420626520656E74657265642066726F6D206120736F66747724
:20563800617265206F7220686172647761726520696E746572727570742074687265616406
:205658002E00415F626164436F6E746578743A206261642063616C6C696E6720636F6E7409
:205678006578742E2053656520476174654D757465785072692041504920646F6320666F32
:20569800722064657461696C732E00415F656E7465725461736B44697361626C65643A2089
:2056B80043616E6E6F742063616C6C20476174654D757465785072695F656E746572282906
:2056D800207768696C6520746865205461736B206F7220537769207363686564756C657232
:2056F8002069732064697361626C65642E00415F626164436F6E746578743A2062616420C3
:2057180063616C6C696E6720636F6E746578742E2053656520476174654D757465782041F2
:20573800504920646F6320666F722064657461696C732E00415F626164436F6E746578741B
:205758003A206261642063616C6C696E6720636F6E746578742E2053656520476174655332
:2057780070696E6C6F636B2041504920646F6320666F722064657461696C732E00415F692D
:205798006E76616C69645175616C6974793A2053656520476174655370696E6C6F636B200F
:2057B80041504920646F6320666F722064657461696C732E0062756620706172616D6574BF
:2057D80065722063616E6E6F74206265206E756C6C00627566206E6F742070726F7065720F
:2057F8006C7920616C69676E656400616C69676E20706172616D65746572206D75737420C3
:2058180062652030206F72206120706F776572206F662032203E3D207468652076616C756F
:2058380065206F66204D656D6F72795F6765744D617844656661756C7454797065416C691B
:20585800676E282900616C69676E20706172616D65746572203129206D75737420626520B4
:2058780030206F72206120706F776572206F66203220616E64203229206E6F74206772652D
:2058980061746572207468616E2074686520686561707320616C69676E6D656E7400626C3A
:2058B8006F636B53697A65206D757374206265206C6172676520656E6F75676820746F2034
:2058D800686F6C642061746C656173742074776F20706F696E74657273006E756D426C6F80
:2058F800636B732063616E6E6F74206265207A65726F0062756653697A652063616E6E6FDE
:2059180074206265207A65726F00486561704275665F637265617465277320627566536913
:205938007A6520706172616D6574657220697320696E76616C69642028746F6F20736D6191
:205958006C6C290043616E6E6F742063616C6C20486561704275665F6672656520776865EF
:205978006E206E6F20626C6F636B732068617665206265656E20616C6C6F636174656400BF
:20599800415F696E76616C6964467265653A20496E76616C6964206672656500415F7A6584
:2059B800726F426C6F636B3A2043616E6E6F7420616C6C6F636174652073697A65203000B6
:2059D800415F6865617053697A653A2052657175657374656420686561702073697A652011
:2059F800697320746F6F20736D616C6C00415F616C69676E3A205265717565737465642031
:205A1800616C69676E206973206E6F74206120706F776572206F66203200496E76616C697E
:205A38006420626C6F636B2061646472657373206F6E2074686520667265652E204661693B
:205A58006C656420746F206672656520626C6F636B206261636B20746F20686561702E0069
:205A7800415F646F75626C65467265653A2042756666657220616C7265616479206672655E
:205A98006500415F6275664F766572666C6F773A20427566666572206F766572666C6F7710
:205AB80000415F6E6F74456D7074793A2048656170206E6F7420656D70747900415F6E75B3
:205AD8006C6C4F626A6563743A2048656170547261636B5F7072696E7448656170206361C4
:205AF8006C6C65642077697468206E756C6C206F626A00617373657274696F6E20666169B3
:205B18006C7572652573257300252453006F7574206F66206D656D6F72793A2068656170EB
:205B38003D307825782C2073697A653D2575002573203078257800455F6261644C65766599
:205B58006C3A204261642066696C746572206C6576656C2076616C75653A2025640066728A
:205B78006565282920696E76616C696420696E2067726F7774682D6F6E6C792048656170AC
:205B98004D696E0054686520525453206865617020697320757365642075702E2045786193
:205BB8006D696E652050726F6772616D2E686561702E00455F626164436F6D6D616E643A6E
:205BD80020526563656976656420696E76616C696420636F6D6D616E642C2069643A2025C8
:205BF800642E00455F737461636B4F766572666C6F773A205461736B203078257820737494
:205C180061636B206F766572666C6F772E00455F73704F75744F66426F756E64733A2054EE
:205C380061736B203078257820737461636B206572726F722C205350203D20307825782E49
:205C580000455F64656C6574654E6F74416C6C6F7765643A205461736B20307825782E009C
:205C7800455F6D6F64756C655374617465436865636B4661696C65643A205461736B206D44
:205C98006F64756C65207374617465206461746120696E7465677269747920636865636BBB
:205CB800206661696C65642E00455F6F626A656374436865636B4661696C65643A205461CC
:205CD800736B2030782578206F626A656374206461746120696E746567726974792063682E
:205CF80065636B206661696C65642E00455F616C7265616479446566696E65643A20487758
:205D18006920616C726561647920646566696E65643A20696E74722320256400455F6877AB
:205D3800694C696D697445786365656465643A20546F6F206D616E7920696E746572727542
:205D580070747320646566696E656400455F657863657074696F6E3A206964203D20256445
:205D78002C207063203D20253038782E0A546F20736565206D6F726520657863657074692D
:205D98006F6E2064657461696C2C207365742074692E73797362696F732E66616D696C79FC
:205DB8002E61726D2E6D332E4877692E656E61626C65457863657074696F6E203D20747292
:205DD8007565206F722C0A6578616D696E652074686520457863657074696F6E207669651F
:205DF8007720666F72207468652074692E73797362696F732E66616D696C792E61726D2EC9
:205E18006D332E487769206D6F64756C65207573696E6720524F562E00455F6E6F49737294
:205E38003A206964203D2025642C207063203D202530387800455F4E4D493A2025730045BD
:205E58005F686172644661756C743A20257300455F6D656D4661756C743A2025732C2061C0
:205E78006464726573733A202530387800455F6275734661756C743A2025732C20616464D5
:205E9800726573733A202530387800455F75736167654661756C743A20257300455F73769A
:205EB80043616C6C3A2073764E756D203D20256400455F64656275674D6F6E3A202573000E
:205ED800455F72657365727665643A20257320256400455F696E76616C696454696D65727F
:205EF8003A20496E76616C69642054696D657220496420256400455F6E6F74417661696CF0
:205F180061626C653A2054696D6572206E6F7420617661696C61626C6520256400455F6398
:205F3800616E6E6F74537570706F72743A2054696D65722063616E6E6F7420737570706FD7
:205F580072742072657175657374656420706572696F6420256400455F737461636B4F7686
:205F78006572666C6F773A2049535220737461636B206F766572666C6F772E00455F7072B4
:205F9800696F726974793A20546872656164207072696F7269747920697320696E76616CBF
:205FB8006964202564007265717565737465642073697A6520697320746F6F206269673AAC
:205FD8002068616E646C653D307825782C2073697A653D2575006F7574206F66206D656D11
:205FF8006F72793A2068616E646C653D307825782C2073697A653D2575003C2D2D20636F81
:206018006E7374727563743A202570282725732729003C2D2D206372656174653A20257016
:20603800282725732729002D2D3E2064657374727563743A2028257029002D2D3E2064652A
:206058006C6574653A2028257029001B5B33313B316D4552524F523A1B5B306D20282573D4
:206078003A25642920252453001B5B33333B316D5741524E494E473A1B5B306D2028257368
:206098003A25642920252453001B5B33323B316D494E464F3A1B5B306D202825733A256470
:2060B80029202524530053746172743A202524530053746F703A2025245300537461727435
:2060D800496E7374616E63653A202524530053746F70496E7374616E63653A2025245300AC
:2060F8004C575F64656C617965643A2064656C61793A202564004C4D5F7469636B3A2074F1
:2061180069636B3A202564004C4D5F626567696E3A20636C6B3A20307825782C2066756E88
:20613800633A2030782578004C4D5F706F73743A206576656E743A20307825782C20637548
:2061580072724576656E74733A20307825782C206576656E7449643A2030782578004C4DDC
:206178005F70656E643A206576656E743A20307825782C20637572724576656E74733A200F
:20619800307825782C20616E644D61736B3A20307825782C206F724D61736B3A2030782518
:2061B800782C2074696D656F75743A202564004C4D5F706F73743A2073656D3A2030782595
:2061D800782C20636F756E743A202564004C4D5F70656E643A2073656D3A20307825782CCE
:2061F80020636F756E743A2025642C2074696D656F75743A202564004C4D5F626567696E28
:206218003A207377693A20307825782C2066756E633A20307825782C20707265546872655D
:2062380061643A202564004C445F656E643A207377693A2030782578004C4D5F706F73746E
:206258003A207377693A20307825782C2066756E633A20307825782C207072693A202564C9
:20627800004C4D5F7377697463683A206F6C6474736B3A20307825782C206F6C6466756E1E
:20629800633A20307825782C206E657774736B3A20307825782C206E657766756E633A20C1
:2062B80030782578004C4D5F736C6565703A2074736B3A20307825782C2066756E633A20D3
:2062D800307825782C2074696D656F75743A202564004C445F72656164793A2074736B3A41
:2062F80020307825782C2066756E633A20307825782C207072693A202564004C445F626C53
:206318006F636B3A2074736B3A20307825782C2066756E633A2030782578004C4D5F79696C
:20633800656C643A2074736B3A20307825782C2066756E633A20307825782C206375727226
:206358005468726561643A202564004C4D5F7365745072693A2074736B3A20307825782C04
:206378002066756E633A20307825782C206F6C645072693A2025642C206E65775072692020
:206398002564004C445F657869743A2074736B3A20307825782C2066756E633A2030782549
:2063B80078004C4D5F736574416666696E6974793A2074736B3A20307825782C2066756EEF
:2063D800633A20307825782C206F6C64436F72653A2025642C206F6C64416666696E697460
:2063F800792025642C206E6577416666696E697479202564004C445F7363686564756C65AE
:206418003A20636F726549643A2025642C20776F726B466C61673A2025642C20637572537C
:2064380065744C6F63616C3A2025642C20637572536574583A2025642C206375724D6173E9
:206458006B4C6F63616C3A202564004C445F6E6F576F726B3A20636F726549643A202564E9
:206478002C206375725365744C6F63616C3A2025642C20637572536574583A2025642C202B
:206498006375724D61736B4C6F63616C3A202564004C4D5F626567696E3A206877693A2047
:2064B800307825782C2066756E633A20307825782C207072655468726561643A2025642CEE
:2064D80020696E744E756D3A2025642C206972703A2030782578004C445F656E643A206808
:2064F80077693A2030782578007864632E0072756E74696D652E004D61696E004D656D6F53
:2065180072790074692E73797362696F732E6B6E6C2E5461736B2E49646C655461736B00EE
:2065380008140C0408142C040814470408144D0436443724FEAEB7AD426400706B7C72683B
:206558006800251473686900251474686A0025146B7801F801FAF2BE707872680EFD746856
:2065780092ED06FD707C2D6450046B781F8F8FED01EC01BEB7ADB78D30664265000070188A
:20659800889D019C0DB6671019AF00AA09B6FFA839AF06BE6B0C6988088F47FDB79D6B0859
:2065B8000188018AECBE2F26FEAE304650042755426600006B0C0B1450044267FF036D0C08
:2065D8006C786D6837ED05B600006C0C717C2D656D0C6D786E680EFD01F82BE90EFD01BEFE
:2065F8003664B7BD1A24FEA6B7AD1A64B7AD000076007B009E0000000000FFFF00000000C0
:2066180000000000000000000000000003709F140100670CB7AD02F547FD47FD47FD4170F0
:2066380062144DFB0986017131643125FEA600FB787054FB18704CFB03704CFB47FD4CFBAE
:20665800651403641F002C8BB1FD0289750CAC146C0801826C0C0100670CB7ADB7AD07F050
:206678006214FF86F86351EB808600608FED49EB47FD49EB6514B7AD6214797055FBFB71EA
:2066980054FB47FD54FB651431440044B7AD8F3F00008F3F01008F3F02008F3F0300903F5D
:2066B80000018F3F0101903F0002903F00038F3F01048F3F00058F1208048F3F00048F3F5B
:2066D8000006513F00007F3F01003F3F04003F3F02003F3F01007F3F020001007B756E6B42
:2066F8006E6F776E2D696E7374616E63652D6E616D657D007B656D7074792D696E737461FD
:206718006E63652D6E616D657D00C0467B7374617469632D696E7374616E63652D6E616DEC
:20673800657D00C000000000200000004000000060000000000000000800000000000000D7
:206758000600000002000000860000008200000000000000080000001000000018000000E1
:2067780020000000A0690000A0670000174B00000D4B0000FD440000254500000544000023
:20679800E1400000CD3C0000C9420000000000000000000008000000D6000E40E0000E4052
:2067B800CE000E4000006E0138650000586900003869000009420000F548000000000000AF
:2067D800000000000000000006088080070880800D2007C00E2007C01400C0800240008085
:2067F8000300C08009400080084000800A400080FE000000A1300000B1380000654800007E
:2068180041190000A5260000474B0000E9320000B91E00004D4B0000A12E0000D53D00003E
