:20000000483F0020996A000001CA011001CA011001CA011001CA011001CA011001CA01100E
:1C00200001CA011001CA011001CA011001CA011001CA011001CA01103FCA011082
:20003C002DE9F84F2D4E89460AAF9846BC88D9F804B099F800503F88009206F10C015846C1
:20005C002A4607F0B1FF4FF0000A30B9042F3ADCC7F10400A0422CDC0CE006F11C015846AE
:20007C002A4607F0A1FF38B9042F2CDCC7F10400A0421EDC84B21CE006F12C0158462A4635
:20009C0007F092FF30B9042F1DDCC7F10400A0420DDD0EE03C3658462A46314607F084FFC0
:2000BC00A0B9042F0FDCC7F10400A04201DC82B200E02246A8F80020D9F80C100098C9198F
:2000DC0004F034FE07E04FF0070A04E050464FF00A0AA8F800005046BDE8F88FF8A70000D9
:0400FC0008F0E3BC69
:200100003C000000000000000000000034010000000000000000000001000000000000006D
:1C01200000000000000000000000000001000000000000000800000000000000BA
:20013C00340000000000000000000000680100000000000000000000010000000000000005
:14015C00010000000000000000000000080000000000000086
:2001700030000000000000000000000098010000040000000000000001000000FFFFFFFFA5
:10019000FF00000001000000080000000000000057
:2001A0002C0000000000000000000000C4010000040000000000000001000000FFFFFFFF4D
:0C01C000FFFFFFFF08000000000000002F
:2001CC0034050000E401000099A1011095A70110A5C2011009B2011045B80110000000000B
:0801EC00000000002F000000DC
:2001F400280000000000000000000000140200000000000000000000FFFFFFFF00000000B1
:080214000800000000000000DA
:20021C00300500003002000069C201106DC101101FC2011095BA011000000000000000008E
:04023C002D00000091
:20024000300500005402000075C20110A9B601109DBF011049B601100000000000000000DE
:040260002E0000006C
:200264002400000000000000000000008002000000000000000000000000000008000000CC
:040284000000000076
:20028800240000000000000000000000A40200000000000000000000000000000800000084
:0402A8000000000052
:2002AC00240000000000000000000000C8020000000000000100000000000000080000003B
:0402CC00000000002E
:2002D00000000000D41900200400000000000000000000002000000070010000300000003C
:2002F0001C020000DC1900200400000000000000000000000C00000030040000180000005F
:2003100040020000E4190020040000000000000000000000240000004804000018000000E2
:2003300000000000EC19002004000000000000000000000010000000A00100002C000000A7
:20035000CC010000F4190020040000000000000000000000200000006402000024000000E5
:20037000FFFFFFFFFC19002004000000000000000000000028000000880200002400000062
:20039000FFFFFFFF041A0020040000000000000000000000580000003C0100003400000046
:2003B000FFFFFFFF0C1A00200400000000000000000000001000000060040000180000005B
:2003D000FFFFFFFF141A00200400000000000000000000001C000000AC02000024000000D1
:2003F000FFFFFFFF1C1A002004000000000000000000000038000000F40100002800000042
:20041000FFFFFFFF241A002004000000000000000000000054000000000100003C000000DD
:1804300018000000000000000000000040040000080000000000000050
:1804480018000000000000000000000058040000080000000000000020
:18046000180000000000000000000000700400000800000000000000F0
:080478000200000064AB00006B
:040480000068704759
:040484000100000073
:0404880000008C0FD5
:04048C000000BC0FA1
:040490003200000036
:040494000100000063
:0404980060190020C7
:04049C00000200005A
:0404A0000000000058
:0404A40001CA011078
:0404A8000000000050
:0404AC00000000004C
:0404B0000800000040
:0404B40000007612BC
:0404B80048180020C0
:0404BC00010000003B
:0404C0007819002087
:0404C400080000002C
:0404C8000000000030
:0404CC00000000002C
:0404D0000000000028
:0404D4000000000024
:0404D8000000000020
:0404DC00010000001B
:0404E000B018002030
:0404E400060000000E
:0404E800010000000F
:0404EC00781700205D
:0404F0000000000008
:0404F4000000000004
:0404F80000020000FE
:0404FC0000000000FC
:02050000704742
:020502002900CE
:020504000100F4
:020506002500CE
:020508002D00C4
:02050A002E00C1
:02050C002F00BE
:02050E000100EA
:0105100001E9
:080514000300000038AB0000F9
:08051C000000000000000000D7
:040524000000930D33
:040528000000AD0D15
:04052C0087C401106F
:04053000380500008A
:040534003805000086
:0405380000000000BF
:04053C0090610000CA
:0405400090610000C6
:0405440000000000B3
:0405480078190020FE
:04054C0047870000DD
:040550002000000087
:0405540098AA000061
:04055800DCA900001A
:04055C000DC30110BA
:04056000E18A00002C
:04056400E38A000026
:0405680099C801101D
:04056C009BC8011017
:040570000000000087
:04057400C48C000033
:04057800F4A80000E3
:04057C000CA90000C6
:04058000DCA80000F3
:020584000280F3
:020586000380F0
:02058800C0179A
:02058A0001006E
:01058C00016D
:040590000000000067
:040594000000000063
:04059800000000005F
:04059C00000000005B
:0405A000CF8A0000FE
:0405A4001D710000C5
:0405A800318000009E
:0405AC0005760000D0
:0405B0006777000069
:0405B400D9790000F1
:0405B8007D5800006A
:0405BC00BB880000F8
:0405C000696000006E
:0405C400D9810000D9
:0405C800D1890000D5
:0405CC000800000023
:0405D0002400000003
:0405D400180000000B
:0405D80028000000F7
:0405DC0020000000FB
:0405E0003C000000DB
:0405E4000C00000007
:0405E80034000000DB
:2005EC002DE9F04FADF1440D01F09EF9BD4ABD4D3A320892B94AB8481268B949CA4C46F23F
:20060C00A813B3FBF2F20992B64A2E320A92B54A34320B92B34A28320C92B24A08320D921E
:20062C00B04A4FF00A0882461435079110320E920820ADF808004746ADF80A704FF0FF36E3
:20064C00039602A807F0D2F80028F1D1002006900827ADF808700926ADF80A6002A807F0BF
:20066C00C5F8DDF810900028CDF8189066D10120BDF80C700F90102F59D19AF800009DF8EF
:20068C000E10884253D14E4630884FF6FF71814219D03078B0284AD1707816280DD17088FE
:2006AC00082107F009FA40B90F9807F089FA00270F970698CAF8100039E0317906F10800F2
:2006CC0007F068FE33E07088000930D3DAF810606EB39AF802007788401C8AF8020096F836
:2006EC0004B01097102007F0D1FC0836071C1ED00221152208F0D4F81098388187F80AB098
:20070C00FE6007F0D3FCC34A394606F055FC8346BBF1160F0BD0BBF1040F08D0DAF81000E8
:20072C004088002107F0C8F9584607F049FA069F27B10F9F17B1484607F050FEDAF80C0090
:20074C0008F0B6FA00287FF473AFDAF80C0008F0ABFA00F109060F9000F10901007A002871
:20076C003AD0801E1ED0401E00F0D283401E02D0401E4DD0CFE30E88102007F087FC071C74
:20078C0000F0C9830121132208F08AF83E810020B8720246FA6007F089FCB24A394606F0A8
:2007AC000BFCB8E3338841F2101000271B1A05D04AF6AE101B1A06D1AB4F07E030797188BF
:2007CC00721D02F023FC002F00F0A58330797188761D3246B8479EE3308841F2101181422A
:2007EC0040F09983B178A24A701D05F0EFF93779002F40F090837779042F05DC002F18BFF6
:20080C00CAF8247040F087830120CAF8240082E3934902200F46086338688008F8D2079881
:20082C00026EDAF824305088606A01468B4202DD401C491C60628B4240F058838B4903202F
:20084C000F460860B96A7D260FF20C2B0FF20C2906FB01F0400987B20A2F278066DB642F73
:20086C0042DBB7F57A7F1BDB0DF11201002640464246761C4346B7FBF0F05043F6B2381A35
:20088C00B7FBF3F73030002F01F8010DEFD11548324604F053FA134958460078885561E0B4
:2008AC000DF11201002640464246761C4346B7FBF0F05043F6B2381AB7FBF3F73030002F82
:2008CC0001F8010DEFD10748324604F037FA0548CEA1801924E0C046C007002080AB0000E8
:2008EC009C160020781500200DF11201002640464246761C4346B7FBF0F05043F6B2381AEE
:20090C00B7FBF3F73030002F01F8010DEFD1D048324604F013FACE4849468A788019827016
:20092C00098801801EE0C046741500200DF11201002640464246761C4346B7FBF0F0504367
:20094C00F6B2381AB7FBF3F73030002F01F8010DEFD1BF48324604F0F1F9BD48CCA109685F
:20096C0080190160BA4807F0B9FEB949002380B200914BF6BE2201901946022005F020FC95
:20098C00D648B0F9001040F2334707FB01F0411200EB915087120A2F6CDB642F3CDBB7F547
:2009AC007A7F1BDB0DF11201002640464246761C4346B7FBF0F05043F6B2381AB7FBF3F721
:2009CC003030002F01F8010DEFD1089F3246384604F0B4F958460078B85568E00DF11201FB
:2009EC00002640464246761C4346B7FBF0F05043F6B2381AB7FBF3F73030002F01F8010D4B
:200A0C00EFD1089F3246384604F098F97FA1384680191EE0918800000DF1120100264046DD
:200A2C004246761C4346B7FBF0F05043F6B2381AB7FBF3F73030002F01F8010DEFD1089F4F
:200A4C003246384604F07AF949468A78384680198270098801802AE000C046C0202000C0B1
:200A6C000C500C4083880000C5550000005009401C0800200DF11201002640464246761CE9
:200A8C004346B7FBF0F05043F6B2381AB7FBF3F73030002F01F8010DEFD1089F3246384613
:200AAC0004F04CF97AA10968384680190160384607F014FE3B46009380B200214BF6BE22DE
:200ACC0001230190022005F07BFB00202062099808F0E6F8206A81490A9A804F4000091887
:200AEC0089880B9B1152206A410078188089CD4F5852216A16464900725A00EB0240E0613C
:200B0C00725A585A00EB0240B7FBF0F06080725A585A00EB0240B7FBF0F00C9F0B261C2354
:200B2C0002B206FB02F090FBF3F002B27A52A06AB2F5FA7F05DB2188B1F5486FC8BF01225A
:200B4C0000DC00220C2106F0BFF9206A401C03282062BCDB3A46B2F90210B2F90000B2F9F3
:200B6C00047003264018C01990FBF6F1B1F5FA7FA06AA16005D32188B1F5486FC8BF012277
:200B8C0000DC00220C2106F09FF9A7680A2F61D3642F3CD3B7F57A7F1BD30DF112010026A8
:200BAC0040464246761C4346B7FBF0F05043F6B2381AB7FBF3F73030002F01F8010DEFD1EF
:200BCC000D9F3246384604F0B9F858460078B85560E00DF11201002640464246761C4346FF
:200BEC00B7FBF0F05043F6B2381AB7FBF3F73030002F01F8010DEFD10D9F3246384604F042
:200C0C009DF802A1384680191EE0C04620000DF11201002640464246761C4346B7FBF0F063
:200C2C005043F6B2381AB7FBF3F73030002F01F8010DEFD10D9F3246384604F07FF849468D
:200C4C008A783846801982700988018022E0C046781500200DF11201002640464246761CDF
:200C6C004346B7FBF0F05043F6B2381AB7FBF3F73030002F01F8010DEFD10D9F324638462C
:200C8C0004F05CF802A1096838468019016001E020202000384607F021FD3B4680B200935A
:200CAC0000214BF6BE2201900220034605F088FA0C98B0F90010B0F90400401A10EB80078D
:200CCC00276140F18D8017F10A0F5CDC17F1640F2FDC17F57A7F40F3F88001E0EA000E409A
:200CEC007F420DF112010026276140464246761C4346B7FBF0F05043F6B2381AB7FBF3F784
:200D0C003030002F01F8010DEFD10E9F3246384604F014F858460078691C2D23B8550020B6
:200D2C002B70401C17F8012B042801F8012BF8D3CBE07F420DF11201002627614046424620
:200D4C00761C4346B7FBF0F05043F6B2381AB7FBF3F73030002F01F8010DEFD10E9F324636
:200D6C00384603F0EBFF73490988B8192D2301800020691C2B70401C17F8012B042801F821
:200D8C00012BF8D3A1E005200DF1120100262061074640464246761C4346B7FBF0F0504357
:200DAC00F6B2381AB7FBF3F73030002F01F8010DEFD10E9F3246384603F0C0FF4946B81986
:200DCC000A88897802802D238170691C00202B70401C17F8012B042801F8012BF8D374E06A
:200DEC000A2F59DB642F39DBB7F57A7F1CDB0DF11201002640464246761C4346B7FBF0F045
:200E0C005043F6B2381AB7FBF3F73030002F01F8010DEFD12846324603F090FF58460078C9
:200E2C00A85552E000366E010DF11201002640464246761C4346B7FBF0F05043F6B2381A53
:200E4C00B7FBF3F73030002F01F8010DEFD12846324603F073FFA81936491AE00DF11201FE
:200E6C00002640464246761C4346B7FBF0F05043F6B2381AB7FBF3F73030002F01F8010DC6
:200E8C00EFD12846324603F059FF49468A78A81982700988018018E00DF112010026B7FB1E
:200EAC00F8F0761C00FB08F0381AF6B2B7FBF8F73030002F01F8010DF1D12846324603F0ED
:200ECC003DFF1D490968A8190160284607F006FC0323009580B200214BF6BE220190022088
:200EEC0005F06EF9079F00203A6E60620020508007F0C9FD07F0D0FE064607F0D0FD0C4983
:200F0C006B202B27087030460F7007F0C1FE02E0087804F099FA0820ADF808000527ADF836
:200F2C000A700F9E039602A806F060FC06E4C04605500C40180C00009C0C00002DE9F04F37
:200F4C000120ADF1240DADF80A000827ADF8087002A806F04BFC00263546D84C8DF81C50FD
:200F6C009DF80C006070A6700498E0614FF6FF70A082384607F08AF85FEA00080CD00121E5
:200F8C00122207F08DFC07F091F807A90123D94A0091414606F02EF89DF81C000121207083
:200FAC0004F1A80006F03EFA04F1CC00022106F039FA04F1F000042106F034FA0420314684
:200FCC001022E07004F1480004F080FA04F158003146102204F07AFA25622672667207205C
:200FEC00E67204F148021021A072022006F082FA04F158020320102106F07CFA042004F14F
:20100C002002014606F076FA19E0A078B4F84050B4F84230B4F84420B4F8461006280ED16B
:20102C00ADF80A50ADF80C30ADF80E20C948ADF8101007F040FD012002A904F089F90A207B
:20104C00ADF80A00ADF808704FF0FF35039502A806F0CCFB002840F0D58130460690ADF8E7
:20106C0008700925ADF80A5002A806F0BFFBDDF810900028CDF8189040F0C481BDF80C0025
:20108C00102840F0B38160789DF80E10884240F0AD814D4628884FF6FF71814200F09E812B
:2010AC002B78A23B00F083812E3B40F09F81A878B046002800F05081801E00F02881401E63
:2010CC00012840F2FD80801E00F0AD80401E73D0401E60D0083800F05B81801E40F05D818A
:2010EC0094F83E30A888052BADF808004BD001208DF81200974807F0DEFC94F83E00012867
:20110C0020D004281ED003280DD002280BD00698C188ADF80A100189ADF80C104189ADF84C
:20112C000E1080892BE0B4F84000B4F84250ADF80A00B4F84430ADF80C50B4F84600ADF8E0
:20114C000E301CE0B4F84000E9888842D8BF081CADF80A002989B4F842008842D8BF081C93
:20116C00ADF80C006989B4F844008842D8BF081CADF80E00B4F84610A889814200DC01467F
:20118C00ADF8101001E08DF81260AB4A02A8122106F07FFA01E1A94807F08DFC687800280A
:2011AC0040F0FB80E888E0822889208368896083684807F0FBFAF0E0B5F804A00A2006F0A1
:2011CC0065FF5FEA00080AD00121152207F068FBA8F808A006F06AFF414606F0DBFCB848C6
:2011EC003146062204F072F9E68226836683A8796073584807F05FFC904807F05CFC4FF09F
:20120C0001084FF6FF706379A0824BB9A879082814BF04200520A070404607F087F9BCE0ED
:20122C000320A070B9E06878002840D1A449281D02680A60808888800623A3706889A08258
:20124C00E889E082288A2083688A6083E878207394F83E00012818BF022808D11F2005F091
:20126C007FFD4FF47A7141433A4805F0FDFE95F803B0B5F80AA0142006F008FF5FEA0008A9
:20128C0000F08E800121142207F00AFB88F808B02D1DC8F80C50A8F810A0042088F812004C
:2012AC0006F004FF7F4A414605F086FE78E0687831286BD12671042023E0C046D40B0020D0
:2012CC006878002862D1A878618AA278032813D02079657921B9012814BF6671267105E0F4
:2012EC00054303D0724805F0BFFEA278072AE2D1062006E09F880000062A06D0207910B9C2
:20130C000320A0704CE00220FBE70720F9E7687800283BD1EB78A078E17993B9022815D013
:20132C00072813D0062802D1617901290ED103280CD05F4807F03AFA40B9012007F0F6F8D3
:20134C0004E0604A404605F0B7F868706878E8B923E0C046A00C00206878B8B9554A022089
:20136C00102106F0E1F8544A0320102106F0DCF85548ED1C29680160AB888380534A012514
:20138C002846A179A57005F097F848B1A77007E0A888454A102106F063F9B8F1010F25D138
:2013AC00606A18B3016809B3A07888471EE0687913281BD12889012808D1A07B022805D1AC
:2013CC001E4807F078FB05F0FBF90FE0052005F0C7FC0146194805F047FE07E06888C00BF8
:2013EC0004D3364A0420014606F09EF8069848B1ADF808700320ADF80A00CDF80C9002A802
:20140C0006F0F4F9208A65792179420830D320F0010055EA010320822AD08DB92C49207A29
:20142C008DF80800657A8DF809500A680DF10A031A608988998006E0458A0000C40C002090
:20144C0003208DF80800A07AE57A184A8DF8100006218DF8115002A805F03AFB616A30B1D3
:20146C00A77021B1086810B1096838468847208A810807D3174920F002002082304603F0FE
:20148C0067FF208AC108FFF4DAAD20F00400A57B2082681E3FF4B9AD401E7FF4D0AD05F0B5
:2014AC008FF9CCE575880000698A00005D8A00007C0C00201C0C00202C0C0020F40B0020A9
:2014CC000C0C00205B0C0020000C00203C0C0020060C0020120C00202DE9F84F8046DD48F5
:2014EC000122A0F130010A60D7490F68002FFCD0D74ED64AC02706F1040B1760DBF8001073
:20150C00890804D23168090C41F0F00100E07221E34AE44D4FF0000982F85412A5F1D4071E
:20152C00C0F80090D6F808A03868C0F3046007F07FF95246534600EB2270401C162805DA94
:20154C0010F10A0FB8BF6FF0090000E01520E649E64F00F01F0040F4F850088038688008D2
:20156C003ABFE348C0F8009042F04062E149A5F13C04D00E970E80F0010000F001000860D2
:20158C0087F0010000F0010088602068C0F38367C0F38F215FEA9A4022D243F307200028CA
:2015AC000BD542424846490805D17F0806BF0127391C4FF6FF71521EF5D1002810DD4FF6F8
:2015CC00FF72490041F001018A4207D27F0047F001070F2F92BF01210F27111C401EF0D17C
:2015EC0041EA0741182005F09BFE20682768C34CC0F3870140F2FF324B4607F0030041EA2C
:20160C000021274688B22C210090A7F1400005F01FF9A5F110073868C0F30D011C2005F0F5
:20162C007FFEB54957F8080C014000F07C400143142005F075FE57F80C1C01F47C000904FE
:20164C00090C0143102005F06BFE57F8042CDBF80010C2F30350C2F30343490812D2316864
:20166C000E0510EB267003D41028A8BF0F2000E04846090413EB217303D4102BA8BF0F235D
:20168C0000E04B4643EA001302F47F4002F0FF01B8F1220F40EA034041EA000124BF02F09E
:2016AC00804211430C2005F03BFEB8F1220F32BF01202868C0F30070B8F1220F4FEA4000BC
:2016CC0040F0200084F8090126BF2868C0F3407001208B4EB8F1200F40F0100084F80901B8
:2016EC0038BF494606D33168C80C00F44070C1F384510143282005F013FEB8F1200F26BF96
:20170C003068C0F301504846B8F1220F4FEA400040F0600084F80C0126BF2868C0F3C060DF
:20172C004846B8F1220F4FEAC00040F0800084F8010126BF2868C0F345504846B8F1200FEB
:20174C004FEA800040F47C40A4F89C0138BF6D490AD3306801038A15920501F47C1100F0CD
:20176C000F00114341EA0031082005F0D9FD2E464FF480002060A6F1D000816D40F20F223C
:20178C006FF31F418A4213D901680068C1F30367C0F3034007B17F1E072805D006280EBF8A
:2017AC000720801C00F00F003D4947EA00100870CAF381477F1E02D07F1E28D023E03168F7
:2017CC00880C20D24FF4804020604F48D0F802204B0AC1F3033703F0800322F08F021343C1
:2017EC0047EA0302C0F80220D0F801300F0A67F30303C0F80130026801F0E70722F0E7022E
:20180C0047EA020102E04FF0004120460160DBF80000C0F3C0070FB94020A0624FF4007035
:20182C003E4F206428684FF04008C0F3C14040F0300084F8C800CAF38150A8B3401E0BD0FA
:20184C00401E28D0022127E09402224300600C40AC3F005040100940012006F003FD05461F
:20186C000420294604F014FF042006F0FBFC8542FAD12648056825F07F4005F0FFFF3846FF
:20188C0014300068036807214FF06022280E98474FF4806020600321042004F0F9FE0AE067
:2018AC00026008408C1300500420012104F0F0FE174805F0E3FF203E30681649164B47F632
:2018CC00180500F03F0084F8CB0F3A460D8018681068C168022088471248114EC0F800804A
:2018EC0001213160BDE8F88F6E6208400000094094042A4300002043FCFCFC0040A00C4014
:20190C009813005000803F400A600840A83F0050BD37860070B00C402C200940A0010010AC
:20192C009404604200600C402DE9F0474FF008080126ADF1780DADF830800CA8ADF832608F
:20194C0005F054FFD94C9DF83400002504F1440720700E98A5612946A060384607F094F933
:20196C0004F1500004F18401E76003F017FB606108B907F085F903A829462422434607F079
:20198C007BF98DF86A60ADF8405040F2053031460DF16A0200F00CFE40F20630022110AABC
:2019AC0000F006FE621C4FF44270314600F000FE04F1380240F20730092100F0F9FD062081
:2019CC004FF4C86105F010FC07204FF4C86105F00BFC40464FF4C86105F006FC09204FF4AA
:2019EC00C86105F001FC30461E2105F0FDFB28468DF86D000F958DF86B6037468DF86C60FC
:201A0C0004210FAA8DF86E704FF4816005F0D2FB4FF480600DF16B02394605F0CBFB40F299
:201A2C0002401BAA394605F0C5FB40F203400DF16D02394605F0BEFB40F206400DF16E026A
:201A4C00394605F0B7FB032005F088FD042005F085FD9748974A132105F0A0F99649032098
:201A6C0005F08CFA06F054F8944DA860C8B106F0FDFA06F04DF8286198B106F0F7FA06F064
:201A8C0047F8A86168B106F0F1FA06F041F8286238B106F0EBFA8A4A05F124000D2105F06A
:201AAC007DF9884E884A032106F1080005F076F98648874F874BDFF824A200688A4E81465B
:201ACC0038681F888046381C1DD018EA090F1AD08148006818EA000F05D15046006800880A
:201AEC0018EA000F0FD03068BA235BA2009303211C90844601927B4B029179491A8808688B
:201B0C0050A34146E0476F4B04F1200004F1300128605960D7B118EA090F17D06E4800683B
:201B2C0018EA000F05D150460068008818EA000F0CD03568C92051A700906A4E0197684B2E
:201B4C0002913288186841463EA3A8470DF142000021282203F0BAFC002001210DF142027D
:201B6C0001F054FA022004210DF1420203F024FD032004210DF1420203F01EFD012004219F
:201B8C000DF1420203F018FD002004210DF1420203F012FD554DA87820BB04F11C0095F82B
:201BAC000180EE786862182006F070FA071C19D00421002206F088FD404606F0B4F938722F
:201BCC007E720020B87205F14803FB6005F158023A6105F12001796106F068FA444A3946E2
:201BEC0005F0EAF90C2006F051FA071C0BD00121042206F055FE04F12800B86006F056FA8A
:201C0C00394605F0C7FF0120102105F0C1FC0220102105F0BDFC60690421012205F054F926
:201C2C003448006846F2A811B1FBF0F007F038F860690421002205F047F900F081FB1EB091
:201C4C00BDE8F087696E74657276616C5F736572766963652E6300C0526567697374657211
:201C6C00656420736572766963652C202564206174747269627574657300C04652656769B5
:201C8C007374657265642063616C6C6261636B7320746F206170706C69636174696F6E2E0C
:201CAC002053747275637420257000C0C0070020E40F002020AB00003F8A0000B813002085
:201CCC00F8A70000101800204CAA00004005000090AB0000BCAB00003C05000044050000AA
:201CEC00A8AB000084050000A0AB0000D40B00204B8A000080AB00002DE9FE4FB84C0F46F6
:201D0C000646F80B80F04781B80880F0D480B54DDFF8D892DFF8E0B2DFF8E882DFF8F4A252
:201D2C002C68B80F67D2B0480678002E47D1380947D3AF4801264946067000240C702046C3
:201D4C0002F055FAAB4806F0B9FDAC492246584606F0A8FEAA48017801291CD141460B7874
:201D6C00CBB9A94E306880B106F09AFC2B68A8493668A64D0A68C01A000B82182860B2EB5C
:201D8C00C61F28BF0C6007D20A60A4484FF0005106F02CFC2CE00670504640F60901018049
:201DAC00417B01F0F00141F0010141734480017B01F0F00101734460974E306018E03909A9
:201DCC0014D2B80BC0F004819D48001D06F071FE061C08D0706830B17468F068B6F91C10F0
:201DEC0098A20CCAA04727F40057F1E00021017027F00807ECE0ECB1042006F033FAC8B1BC
:201E0C0006F04EFC864A29681060814226BF401A401E401A000BF060F06800F58D70F060F6
:201E2C00F16840F6C410884203D340F2EE228A4200D9F0600024D6F818C02C60BCF1000F4A
:201E4C0010D050460D30007810F00F0F0AD1708C40F60901814205D17CA20CCA30466FF4B0
:201E6C008071E0476F495846224606F01BFE4546287850B10220ADF80000684605F078FF64
:201E8C002C70BDF808006849088049460120674A674B087010781C70401C1070192006F0FA
:201EAC008DFC756925B16BA20CCA30462146A84727F000578CE004F10C0A504606F0F9FDC3
:201ECC00061C5FD005F040F97368B2690025B561E3B1F37F42F002024FF00009904603F0F9
:201EEC0007035B1E07D05B1E03D09B1E06D15BA002E05CA000E05DA090E800037268F0683D
:201F0C00B6F91C104B4694464246E04706F0C4FE8046B4F91200401C6FF31F306082E0684C
:201F2C001F30017801F07F010170504606F0B6FA404606F0ADFEF068B0F99410B4F9122004
:201F4C0091421FD13B49097801291BD090F896409CB904688CB1384909680968B1F1FF3FF9
:201F6C0010D0364909687030B4FBF1F106F080FEF068703006F078FE04E080F896502846CC
:201F8C0003F0F2FE504606F094FD27F0020708B147F002071CE006F07FFE014620460830C8
:201FAC0006F087FD0646B469084606F071FEA0080CD25EB17068B169A143B16130B1756844
:201FCC00F068B6F91C1000232246A84727F480471FB11248394606F009FBBDE8FE8FC0468B
:201FEC00B82700200C2800202F2800202B28002029280020095800006C270020A17F0000F3
:20200C002D28002028280020082800201428002004280020CC2700200010044068260020C2
:20202C0010280020DD3F000030270020312800202A280020481A00201828002080AB0000B1
:20204C00B8270020000000002000000000000000000000020000000000000004000000004F
:20206C0000000010000000000000004000000000000000202DE9F04F09AFADF13C0D079059
:20208C000A930992089138793F880B90084605F02DF90546DFF87CA2DFF87C92DFF87C82ED
:2020AC00DFF884B2A348002D06880C9540F0AB80A148FF25002401680D9516B35046006862
:2020CC0001421ED048460068014204D1404600680088014215D0994840F29D130568009354
:2020EC005FA201926FA30293079803900A98049005970B988B4B06901A88894B186853A39A
:20210C00A847002F4BD10A9869A23D18022D27DAC5B90B98182818BF122813D150465946BC
:20212C0000680968002E38D0014236D048460068014204D140460068008801422DD04FF434
:20214C00DB761FE0089809990A9AC068C01902F0F5FD002D42D00C980D90754E35803DE043
:20216C0058460168CEB150460068014215D048460068014204D140460068008801420CD004
:20218C0040F2AD16694805680096664B0192644E02941A8830682DA3A8470D241EE0594637
:2021AC000968D6B150460068014216D048460068014204D140460068008801420DD05B48AD
:2021CC004FF4D47643A305680096564E0193544B0294328818681DA3A84707240D98FF2830
:2021EC000FD05348801C006858B106684EB10A980C9A099BC01980B20090079841F2101165
:20220C00B04720461FE059460968DEB150460068014217D048460068014204D14046006893
:20222C00008801420ED0414804684FF4D17732A6002500973B4B0196394F02951A88386857
:20224C0002A3A0470A200FB0BDE8F08F696E74657276616C5F736572766963652E6300C0D3
:20226C005772697465417474724342203A20257320636F6E6E48616E646C65282564292001
:20228C006C656E28256429206F666673657428256429206D6574686F642830782530327828
:2022AC002900C046494E54455256414C3000C046496E76616C69642076616C7565206C6553
:2022CC006E677468207761732072656365697665642E00C0416E20696E76616C6964206F3C
:2022EC00666673657420776173207265717565737465642E00C046C041747472696275741A
:20230C006520776173206E6F7420666F756E642E00C046C0400500003C0500004405000071
:20232C00A8AB0000840500008CAB0000A0AB000012180020BCAB000090AB0000A4AB0000F8
:20234C002DE9F04F854C04F1480004F15401ADF1340D02F023FEDFF80C82DFF80CB2A062D6
:20236C0000BB7F48474601683888D8B158460068014217D07D480068014204D17C480068EF
:20238C00008801420ED07D4805684FF4D17763A600230097784F0196764E02933A883068F7
:2023AC005BA3A84703A800212422082306F064FC002604F1700003AB71490896324606F092
:2023CC004FFC04F089FEDFF8C8A143466D4D6F4F6D485AF81D4CDFF8CC816F60B3F800904C
:2023EC002860C4F38007002F50D16A499CC905F15C009CC09CC99CC01EC980E81E006B4C10
:20240C00E96EB5F86A200127FF235534C4F8AB3F6148C4F8FF7F02F091FCA86F804742F631
:20242C000B3542F22B0044F8550C5C4944F8515C4FF480730B6044F8216C44F83D7CC4F8AB
:20244C00B37FC4F8F37FD4F8F30F06F025FC5AF81D1C534A41F004014AF81D1C116821F0C8
:20246C00F05141F03451116006F012FC414601F12400006805F00AF806F002FB06F009FBFB
:20248C0005F01EF806F0FFFA06F009FB06F004FC41460A684B68120442EA13420C3108328C
:2024AC00CA604FF480370F610A6842F4A0220A60D1F8F02F22F01F0242F02502C1F8F02F5C
:2024CC0006F0E6FB012002F0F1FA37480168B9F1000F1AD058460068014216D0234800688E
:2024EC00014204D122480068008801420DD023484FF4DF7712A5046800971F4B01951D4F14
:20250C0002961A88386802A3A0470DB0BDE8F08F73635461736B2E6300C046C04572726F10
:20252C007220696E697469616C6973696E6720626F617264204C45442070696E7300C046FC
:20254C0073635461736B20696E697469616C69736174696F6E20646F6E6500C074150020D6
:20256C008CAB0000BCAB0000400500003C05000044050000A8AB000084050000A0AB0000BB
:20258C004B5500009C160020FB890000058A00002D10094058A9000000000E4000100E4077
:2025AC00003009400820094090AB000000500C40F8B5A0F2013517460E46022D40F2148132
:2025CC008A4A8B498B4B2D1F0F2D04D9143D4AD0AD1E1CD011E0DFE815F0C300BC00F400BA
:2025EC00E400B300AB000701A2009A00100010009200880079006F006300282880F2F4808E
:20260C00022E40F0F180398804F0EEFDF8BD012E40F0EA8015462879012800F0E58051797B
:20262C003878507181B9002800F0DE809078012800F0A980042800F0A680062800F0A380A0
:20264C00052800F0A080F8BD3878002840F0CC809078032800F0A280072800F09F80052878
:20266C0000F09C80F8BD012E40F0BE803878012840F0BA80154605F1F00006F097F80028BF
:20268C0040F0B2802C46002004F13E0102F060FE002840F0A98004F1CC0006F00CFAF8BDC3
:2026AC00022E40F0A18038880A28C0F29D80B0F5486F00F3998015E0022E40F0958038883A
:2026CC00B0F5FA7F80F290800880F8BD022E40F08B8038880628C0F28780B0F5486F00F3B0
:2026EC0083801946891C0D4638E0022E7CD13888062879DBB0F5486F76DC1946F3E7012E87
:20270C0072D1387806286FDA891F0D460EE0012E6AD13878042867DA15460B3506E0012E23
:20272C0062D1387808285FDA15460A352870F8BD012E59D13878042856DA1546093506E076
:20274C00012E51D1387804284EDC154608352946DBE7022E48D13888154612352946B3E799
:20276C00012E41D11546687901283DD011793878107161B9002837D09078012803D0042866
:20278C0018BF052830D1012005F0D0FEF8BD387850BB9078022818BF052825D105F0DEFFD6
:2027AC00F8BD154605F1870400211F22204602F08DFE39463246204602F0C0FA0020EE71AF
:2027CC000EE0154605F1680400211F22204602F07DFE39463246204602F0B0FA0120AE71D4
:2027EC003146224603F068FEF8BDC046D40B0020180C0020140C00202DE9F04F0128ADF13B
:20280C00140D40F0F280DFF81492D9F8DC00012840F0E9800220C9F8DC0006F01DFA02909F
:20282C00012004F0C9F820B101210646C9F8DC10D5E006F00DFA03906E484FF00008C0F8D0
:20284C000080012005F00EFD012818BFCDF8008004D1404603F034FD0120009066486E4CEE
:20286C00C0F800801934D4F8FF0F112006F05CF800280CBF46460126102006F055F808B1A0
:20288C0046F002060F2006F04FF808B146F004060B2006F049F830B1584800685849006B32
:2028AC000246088890470A2006F03EF80028404618BF01204FF0805B0BF5DC7528B128688D
:2028CC005049006B0246088890474F480127076028688069014646F0200088474B48076034
:2028EC0006F01CF800F001010191400815D2484805F0A5FF8246BAF1040FF8D0BAF1010FDD
:20290C0006D1DBF8D801406802464148032190474049086820F003000860404600F080F852
:20292C002868D4F8FF1F806B8047019801280ED0BAF1010F06D1DBF8D80140680246344815
:20294C00394690473349086840F0030008602A480760286840690146304688470B2005F0D0
:20296C00E3FF28B128682649C06A0246088890470A2005F0D9FF28B128682249C06A02467B
:20298C0008889047204807600322C9F8DC201F4BC3F800802868406B01463046884701287E
:2029AC00F8D1042004F008F8124807601A48D4F8FF1F01688909FCD30098012802D1384641
:2029CC0003F07EFC05F0A4FF082003F0F5FF06460398C9F8DC7006F037F903F011FB029824
:2029EC0006F02EF902E0042600E00126304605B0BDE8F08F0C40094000022243B801001087
:202A0C0072A800006EA800002820086080010443004003402422084014100940A8120020AA
:202A2C002DE9F84F07467F48DFF8EC8135380068800880F0E28005F087F905467D480830E9
:202A4C00D0F800A000244FEA2A725FEA9A5002F101020AD2C5F13E0015F10A0F4FEAE000D8
:202A6C00D8BF08208242B8BF021C684ED6F87C01C0F3046005F0DCFE03463068C0F3044073
:202A8C0005F0D6FE9A188346162A05DA12F10A0FB8BF6FF0090200E015225D4B5D4802F074
:202AAC001F0141F4F8511980006810F0030F18BF0124C00828BF44F002040FB144F0040478
:202ACC00414691F90700281A052804DA8879A04208BF888870D0DFF844810F2DA5F10F0905
:202AEC002ADB09EB0510A0F1F0094FEA2920072888BF07200746062F88BF062758F827C0E6
:202B0C000423464603EB8703F3584FEA940EE708A3EB0C0303F0FF0624BFC3F307273E448B
:202B2C004FEA540CA70824BFC3F307473E44670828BF06EB136605E000264FEA940E4FEAF9
:202B4C00540C304658F820805FEA5E0708F0FF0324BFC8F307273B445FEA5C0724BFC8F366
:202B6C0007473B44670828BF03EB1863B6B2A9EB0027ABEB02007E43002806F1800603EBAE
:202B8C001623D8BF012034220AF0FF0742437A43B2FBF3F04FF6FF72824238BF101C802DC6
:202BAC0080B2888005DA15F1800FB8BF6FF07F0500E07F25CD718C71194A12681F280A60B4
:202BCC004FF0000208D340F2FF11814206D24008521C8142FBD301E01F208880124F1149C6
:202BEC000F38000942EAC00247EA0200C1F8FB0F0026C1F8FF6FBDE8F88F0D4F0B4E4146E0
:202C0C0008203760891D0870BDE8F88F3C1100506E62084024220840F02700209C13005026
:202C2C00082009403500094000E7A48030100940FDFDA400AC3F00502DE9F04F09AFADF181
:202C4C003C0D08900B930A920991B8883E880C90084604F04BFB6E49DFF8C4B1DFF8C4A14A
:202C6C00DFF8C49100280D88DFF8C08107955CD1694C68482168008800240D900DB36748D8
:202C8C00006801421DD058460068014204D1504600680088014214D0654840F25F13056807
:202CAC00009339A2019247A30293089803900496387A434605904F4606941A8838682DA3AA
:202CCC00A8470D98B0420EDB0C99801B8842D4BF82B20A1C0B9802800998C1680A9889194F
:202CEC0002F02CF81FE05348079F0168D7B14B480068014216D058460068014204D15046A9
:202D0C000068008801420DD04B484FF4B57730A605680097434601964F4602941A8838682E
:202D2C0014A3A8470724204620E0424801682F1C1BD03A480068014217D0584600680142CA
:202D4C0004D150460068008801420ED03A4804684FF4B27727A600250097434601964F4653
:202D6C0002951A88386803A3A0470A200FB0BDE8F08FC046696E74657276616C5F736572C0
:202D8C00766963652E6300C052656164417474724342203A20257320636F6E6E48616E6438
:202DAC006C653A202564206F66667365743A202564206D6574686F643A2030782530327827
:202DCC0000C046C0494E54455256414C3000C046416E20696E76616C6964206F666673659D
:202DEC007420776173207265717565737465642E00C046C041747472696275746520776156
:202E0C0073206E6F7420666F756E642E00C046C0BCAB00001218002090AB00004005000061
:202E2C003C05000044050000A8AB000084050000A4AB00008CAB0000A0AB00002DE9F843FE
:202E4C00814605F05FFD002100B901216B4E30680028FCD06C4D01242D1DEF6A346009B13E
:202E6C0005F056FDDFF89881C7F3072008F1BC01086005F047FD002100B9214630680028D5
:202E8C00FCD02F68346009B105F042FDC7F38440C8F8C00005F036FD0146002001B9204694
:202EAC00014630680028FCD0ED69346009B105F02FFDC5F38120C8F8D000B9F5C061C8F8F6
:202ECC00B81000F0968098F8D80068B9C8F8D410D8F8C000C8F8C800D8F8BC70C8F8C470E3
:202EEC00D8F8D060C8F8CC60D8F8D410D8F8BC60002954BF02206FF00100454605F1C80330
:202F0C001A6801EB41014018411000EB917002EBA0021A60D5F8C810C5F8C46000291CDDAF
:202F2C001E293DDDD5F8CC0030B93429B4BF15391E21C5F8C81025E02A29BABFD5F8C8004A
:202F4C000B381E20C5F8C800D5F8C4003F28B4BF401C3F20C5F8C4001FE0D5F8CC000328F5
:202F6C0012D011F10B0FC6BFD5F8C8000B30201CC5F8C800D5F8C4000028CCBF401E00206F
:202F8C00C5F8C400032009E011F1150FC6BFD5F8C8001530201CC5F8C8000020C5F8CC00A9
:202FAC00B5F8C400174E30214FF47F4208230090304603F04DFC009404214FF4003211230B
:202FCC00304603F045FCB5F8C80004214FF4F80212230090304603F03BFCB5F8CC00202145
:202FEC004FF440620A230090304603F031FCBDE8F883002088F8D800BDE8F88300800C4009
:20300C00A812002000A00C4000A00C4003462DE9F04F6648674DDFF8A0B1DFF8A0A1DFF8DB
:20302C00A091DFF8A0810F46002BADF1240D068807924ED15E480168F6B1286801421BD052
:20304C0058460068014204D1504600680088014212D05D48EC230468009332A2019238A3A6
:20306C0002930397002204920592434606921A884B46186826A3A047022F00DA0FBB5348D2
:20308C002A680168002E40D011423ED058460068014204D1504600680088014235D04A480C
:2030AC00FC260468009629A5019502970123039300220493464605924D46069232882868D8
:2030CC0021E0434C07993A46204601F037FE67801BE03E480168C6B12868014215D058460A
:2030EC000068014204D150460068008801420CD03848F02723A604680097454601964F4685
:20310C0002932A88386802A3A04709B0BDE8F08F696E74657276616C5F736572766963659E
:20312C002E6300C0536574506172616D65746572203A202573206C656E3A20256400C0460B
:20314C00494E54455256414C3000C0464C656E677468206F75747369646520626F756E6411
:20316C00733A204C656E3A202564204D696E4C656E3A202564204D61784C656E3A202564E6
:20318C002E00C046536574506172616D657465723A20506172616D6574657220232564203B
:2031AC006E6F742076616C69642E00C0BCAB000090AB0000400500003C0500004405000023
:2031CC00A8AB000084050000A4AB00008CAB000010180020A0AB00002DE9FC416F4C20467A
:2031EC0005F067FC15460E46009005F055FD05F001078046B6F1FF3F0DD1606820B9B4F911
:20320C001200401C06B202E06068B0F91C6064490020C91C0870304604F0FEFC03260028CE
:20322C0000F0A4806168814270D0009FDFF848C1B84231D03FB100990A68904209D0096811
:20324C0000290091F7D1832E44D0404605F020FD40E0604604F0AAFF00990868AA0803D290
:20326C0002680B4601461A6000220A60009078B10C340146C87F40F00400C877684605F09D
:20328C000DF90146204604F0B3F800980028F0D1404605F0FDFC1CE0604604F087FFA8080F
:2032AC003ABF2068006800202060404605F0F0FC0C340099C87F40F00400C877684605F0DC
:2032CC00EDF80146204604F093F8009808B1A808EFD2832629482C4A007890B928480078D6
:2032EC00012846D0274805F0E9FA0221104605F07DF92648007801283BD0254805F0DEFA04
:20330C0037E01046022105F071F932E0A90803D32168009100262660C27F0121B9401143A3
:20332C00C17705F095FC0646002F14BF19481A4804F01EFD404605F0ABFCA80811D3009855
:20334C0078B10C340146C87F40F00400C877684605F0A4F80146204604F04AF80098002815
:20336C00F0D1304605F070FC832602E0404605F08FFC3046BDE8FC81D02600202A280020F8
:20338C0029280020051D0000682600202B280020F14200000100020401000104B82700202E
:2033AC00302700202DE9F04FADF1840D209000F0F5FC03F029FA0024012804D105F03EF812
:2033CC00022808BF012459490868C0F38150012805D151F80C1C0120090E884004435448E2
:2033EC00007804F0B3FDDFF84C81DFF84CA1C8F8000030B15246FF2107467F1E02F8011BE4
:20340C00FBD120990968002501F0FF02FE2A1BD0DDF880C052462B46012701F0FF06FF2E17
:20342C000BD0B04203D907FA06F6344201D0022079E001F0FF01354353545CF8041F5B1C1A
:20344C0001F0FF06FE2EEAD1092001F08BF83B49209824220823086001A8002105F0ECFB2B
:20346C004FF0010901AA3E488DF81C90494605F0DFFBD8F800303BB33A4E00274FF0040B4C
:20348C00BA4609FA07F0044218D1054204BF07F0FF0141F4C04104D027482099C05D51F85E
:2034AC002010274801F04CFAF8B24FF0FF3104F0E7FED8F80030C6F800A001E0C6F800B08B
:2034CC007F1C361D9F42DCD30AA800213022082305F0AAFB1B4D1D4A2878002410210AABFF
:2034EC0012901948009405F09BFB16A828220823214605F091FB686816AA16491C9014488C
:20350C001D94234605F084FB134A52F80D0C494620F4F85040F4005042F80D0C0F4BC2F87B
:20352C00FF1F2046196021B0BDE8F08FB43F00503028002000280020F426002020280020E8
:20354C00007FC7674CAB000034270020A982000034260020A56800000D30094008000940B7
:20356C0050270020B82500202DE9F84F9A4693460D46044605F090FBDFF85C810AAFB8F95A
:20358C001220B8F91010009040F6F870891A0840082880F29280B8F91000401C6FF31F3081
:2035AC00A8F81000B8F9109004F0C0FD064604F1700004F0FBFDB56086F81EB0C6F804A0ED
:2035CC00F460A6F81C9097E80C0051A003C800251040F577D8F8002006F11007194087E853
:2035EC000300002A5CD14046314603F001FF00285BD0A4F894904448F17F0778DFF8DCA094
:20360C0041F08001F17784F8965067B151460F784FB1344A3449324B0570012015700A78D7
:20362C001870521C0A70009805F032FBD8F8040000284ED15146087800282DD12B48007811
:20364C00012846D005F028FB054629480078F8B9B06802F05FFE284B2C4A26491B68126866
:20366C00086038B9284605F013FB2448042104F0BDFF2EE0D0680968214C091AB1FBF3F15C
:20368C00204605F0F5FA204605F0EEFA28461EE01C4901200870F9E7192005F08FF818E09A
:2036AC004046314603F0A4FE50B9B8F9100000F6FF706FF31F30A8F810006FF0010905E08E
:2036CC00A4F89490F07F40F08000F077009805F0DFFA4846BDE8F88FB82700202B28002006
:2036EC002F28002028280020312800202A280020292800200828002080AB00006826002052
:20370C00D02600202C2800202E28002018280020F1EFFF9F200000002DE9FC415E4C574DFE
:20372C00574EDFF860815A4F94F8E410481E0B2861D8DFE800F07B2C4306234306234306A6
:20374C007664042907D001220A2945F8212C14BF0220032004E02021012045F8211C02467F
:20376C0084F8E200002045F8390C0827C5F8FF7FC5F8F37F45F8392CBDE8FC81052914BFDF
:20378C0009200620002584F8E400356070E094F8E1700120383D002FC5F81B0004BF062001
:2037AC00002102D00021F160032084F8E400032045F8010C31603068800859D294F8E4005C
:2037CC00012503280DD00021404660220523009103F03EF894F8E400062814BF0A200720E2
:2037EC00D1E702200090002160220523404603F02FF80420C7E705F007FABDE8FC81224993
:20380C00002622480E60012505600E2000F0D6FD022004F063F884F8E45084F8E360BDE89D
:20382C00FC81002038600C2578601FE01948006800680146202088472C3D41F61D560F2076
:20384C0000214FF4C072072345F8010C4046C5F803600225009502F0FBFF404600214FF41A
:20386C00C072072303F01CFA0120386084F8E45004F1780005F0F8F9BDE8FC8139400C4034
:20388C0038600C4000A00C402C500C4004800C4034600C40A0010010A81200202DE9F84FEC
:2038AC000C4605460AAF5649267860683F88934698463246009004F07FFB4FF0FF0A00283D
:2038CC0031D16FBBB8F1020F28D19BF801009BF8006006EB002636F001001DD1E068046896
:2038EC002146284604F032FC00280CBF0020807886420FD02846214604F028FC48B92146BE
:20390C004FF6FF7004F022FC002808BF112008D005808670002004E0802002E00D2000E0CF
:20392C000B2081465EE0374D0098324605F10C0104F042FB4FF0000970B907EB0805042DE2
:20394C004BDCE06859464246C01901F0F7F9042D48D14FF0020A48E0009805F11C0132462B
:20396C0004F02AFB70B907EB0805042D35DCE06859464246C01901F0E1F9042D32D14FF032
:20398C00030A32E0009805F12C01324604F014FB70B907EB0805042D1FDCE0685946424603
:2039AC00C01901F0CBF9042D1CD14FF0010A1CE000983C353246294604F0FEFA80B907EB02
:2039CC000805042D09DCE06859464246C01901F0B5F9042D06D1CA4607E04FF0070901E0A2
:2039EC004FF00A09BAF1FF0F06D00748006818B1016809B1504688474846BDE8F88FC04612
:203A0C008CA90000F8A70000B8130020F8B5414C201D0368B3F1FF3F08BF002302F0F4FE49
:203A2C00002876D13C4E20683468070F04F0FF04802C28BF002402F0E7FE4FF0FF3578B126
:203A4C00401E07D0401E012802D9801E13D014E08FB112E0381C5CD0801E0ED114340BE0EC
:203A6C003846401E55D0801E53D0001F51D0401E03D1163400E00A3465B2162D49DB2748B1
:203A8C002749002501270560264E0F60264C376020680028FCD1274A161D2449244F306873
:203AAC0020F0030001433868C0080CD2106810F0030F0AD041F003003060106800F00300CA
:203ACC000328FAD101E041F001011B483160006820B11A4800681846FDF7FEFC18481949CB
:203AEC000560194F0A686FF35B4247EA0200086016490868C0F30130012806D10A68144860
:203B0C00104040F400320A60086020680028FCD1F8BDFEE718130050A01000508404604255
:203B2C005C600C40082204430C00684204000020B03F005000400340800128430001204314
:203B4C008C210840482003400000390104000940FFFFFCFC70B5ADF1380D00F01FF93249B1
:203B6C0008682822082340F00200086001A8002105F052F82D4EB0782E4907902C48002369
:203B8C0001AA05F045F800213022082301A805F04BF8002519213078284AADF81C5001AB87
:203BAC0009902548009505F03BF82822082301A8294605F031F8F07822490790204801AA0E
:203BCC002B4605F025F83022082301A8294605F02BF801241A2170781C4AADF81C4001AB4E
:203BEC0009901948009505F01BF8194819492A46134605F035F8184804F060FE1849194EFA
:203C0C000C70164835704FF6FF728283C577164B1D70164C257016490D70174E3560154A08
:203C2C0015700EB070BDC0460020094072AB000068260020C98500006C270020A17F0000AD
:203C4C009C260020614B000088270020C9630000D026002049790000F14200001427002069
:203C6C00282800202D2800202A280020292800202E2800202F2800200C2800202DE9F04FDA
:203C8C000C464549CA7AADF12C0D84460592487B09900D7900958A7A488B4B8A0E7B91F887
:203CAC0005A091F802800492B1F846E008904A7A088B0392CD7807900A7AC88A02920F6AA0
:203CCC000690CA79888A01928A79E146A9F54079B9F11D0F10D8DFE809F05B5553514F4D6B
:203CEC004B494643413F3C3A380F34312E2B2923201E1C0F19181716BCF1280F49DA6046E0
:203D0C0003F02EF821E0099EB246D046CDF814801DE00898079007980690DDF818E005E054
:203D2C003831086820608888A08032E070460AE0B1F8440009E0B1F8420004E0B1F84000AE
:203D4C0001E091F83E00034612E0208021E0059804900498039001E03231E2E70398029039
:203D6C000298009006E0019A87310DE068310BE01846EAE7009D0BE02C31D2E7276008E027
:203D8C00583100E048311022204600F0D7FF00E025700BB0BDE8F08FD40B00202DE9F0413D
:203DAC00444C94F8E700ADF1280D00286FD1394F387B01250021242284F8E7507E6884F8DC
:203DCC00E6000823C4F80C6101A804F055FF002604F10C00069601ABADF814602E49079610
:203DEC00324604F03DFF2D4904F1300001AB324604F036FF2A4904F1540001AB324604F053
:203E0C002FFFB868014628468847DFF89C8025487B7B0078D8F80410C1F381571BB1032F88
:203E2C0003D184F8E150032F16D0022F14D0012F26D103201D4C009031464FF040521C23FE
:203E4C00204602F005FD009531464FF400720923204602F0FDFC13E0022003F057FD032F30
:203E6C000CBF4FF47A7142F21071114800685434B1FBF0F1204604F0FBFE204604F0F4FE13
:203E8C00D8F80000C00802D2304603F03FFD0AB0BDE8F081F0AA00006B6D00003D50000036
:203EAC00E152000030280020B03F005000A00C4080AB0000A81200202DE9F0430746880FEE
:203ECC00ADF1140D75D302F02FFC404D00261C352E60394845F81C0C012000F088F9374829
:203EEC0004F0ECFCBC68B14640F60A01344A6680537B118090465680107BC2F8049003F043
:203F0C00F00300F0F000107343F00103537300E01C46636813B118888142F9D1C4F8048004
:203F2C00607B00F0F0006073264804F0C2FD80680088C91F81421DD0491C81421AD03B8CE5
:203F4C00C3B197F82C107E8497F82D00C7F8249001F0F00100F0F00087F82C1040F0010037
:203F6C0087F82D0007F12003C8F80430507B00F0F0005073B868694604F0C8F8684604F0E7
:203F8C000DFCB86800F0BFFF28680028FCD02E60012004F067F9012808D0607B00F0F000FB
:203FAC0040F001006073084804F088FCB86845F81C0C05B0BDE8F08301010E04051D0000A1
:203FCC00CC270020B827002075610000001004402DE9F04104F04AFA3F4D3E4EDFF8FC80AF
:203FEC000446A00820D330464168E9B1002242608B690A690F6922401A4342F0020205F189
:20400C0008038A611A68BA4301F110071A6097E80C002A680C301B1C9A432A6003F0E8F9D1
:20402C004046022104F0E2FA7068A10815D200F1100191E80C00002702EA04013B40002B4E
:20404C0008BF002909D081691440B0600C4384614FF48041404604F0C9FA7068002837D1C0
:20406C00304604F026FD071C32D01E48F9680068884228D1B86802F04DF919490860E8B9CD
:20408C0005F1080138690A68104308602B6807F1100494E80300081C1843286000222A6175
:2040AC00B86845F80C0C05F1100000680028FAD0304604F0F3F97760BDE8F081086801F07B
:2040CC0053FEBDE8F08140464FF4805104F08EFABDE8F081B82700200C1004406826002034
:2040EC0008280020182800202DE9F0430646ADF11C0D04F085FD03F0A9FB4FF00009054608
:20410C00CDF80C9004F040FC30F0010002D00398A84202D16FF0040066E070684C4658B19B
:20412C00B0F1FF3F05D004A903F078FB30B1804659E04FF0FF3000E02046049004F05CFD37
:20414C0004994FF00108471802E00A463BE004936868049904F04CFD00282DD0684602F0BC
:20416C0085F8D8B99DF8040005A903F057F888B9B368BDF814009DF80610029A984748B158
:20418C00BDF814009DF80670B081029BB773C846336111E0029903A803F0D0FC0498641C93
:2041AC00B0F1FF3FD4D00028D2D004F025FD3B1A02D004989842CAD2039F04F0C3F805F110
:2041CC00080647B13A4652F80C1C0029BDD1316842F80C1C376004F021FA24B1686804F0EA
:2041EC0003FD641EFAD1404607B0BDE8F08370472DE9FC413A4D804628680C468047206889
:20420C00B0F1FF3F29D06269500923D2100A05D320460021022201F065FB626990094FF010
:20422C00000104D2D00924BF42F02002626167684FB9D00807D202F0070220464FF48073A9
:20424C0000F026F90146E2680020226101B90120074603E042F480626261002768680FB96A
:20426C00804732E0616901F0070104291DD0A168E2688A4205D8204602F030FAF8B968687D
:20428C00A1684A1CA2605FFA88F60E706169890807D3B8F10A0F04D1204602F01FFA70B9E6
:2042AC00686880473046BDE8FC8120688DF800806946012203F0E8FDB0F1FF3F09D160690A
:2042CC00696840F48060606188474FF0FF30BDE8FC81686880475FFA88F0BDE8FC81C0463D
:2042EC00C4190020042998B54CD1274804F0E1FB264C48B9264800F11F010978490838BF24
:20430C00206803D3406800E0C06820604168214A09781160416812680978914206D08769C0
:20432C0027B124A20CCA6FF0FF01B847022003F0EDFA112000F016F901222168164B087CE2
:20434C001A7018B115480078012803D00E2000F009F92168496812488F680FB9CF681FB1B3
:20436C000021C1610F4F07600F4A40F2FF711160002787610D4941610D4804F09FFA19209B
:20438C0004F02EFC98BDC046B82700201828002014270020D02108402A2800202D280020BE
:2043AC0000100440510007060000046002000040C53E000000000000000000022DE9F84343
:2043CC00044604F069FC81462D48021992F8ED10491ECFB2002F82F8ED704BD12B4D05EBDE
:2043EC0084052E78698836F07F0788461AD1F10911D24FF08054D4F8B80180690146404601
:20440C00884704F5DC742068406B0146404688470228F8D121E000EB8800D0F80011002049
:20442C0088471AE04FF08054D4F8B801006A014640468847D4F8B801806A014640468847FE
:20444C00D4F8B801006B01464046884701210D4A0D48116001688908FCD306F03F003F2820
:20446C0001D0FFF7ABFF687800F03F003F2801D0FFF7A4FF484604F00BFCBDE8F883C04630
:20448C00A8120020282008602820084044A800002DE9F041DFF8C8800446D8F800001F4625
:2044AC0016460D4680472068B0F1FF3F02D0042E03D017B9D8F804002EE0636873B16069D2
:2044CC00010903D3581E04F025F8606900216160A160E16020F00800216100E0606906B97A
:2044EC00012620F00700012F46EA0006666108BF0025B7F5807F88BF4FF48077B5B97F1C24
:20450C00384603F0C1FA0546D8F804004DB96169656041F48061616180474FF0FF30BDE8FD
:20452C00F081616941F00801616101E0D8F804006D1C65602561E919A560491EE160804739
:20454C00D8F8000080470549034AD8F80400116080470020BDE8F081A0190020F97B00008E
:20456C00C41900202DE9F041064604F095FB2D4D8046A91991F8ED00421C002881F8ED2097
:20458C004AD1294C04EB8604277807F03F003F2801D0FFF7E7FF607800F03F003F2801D0DE
:2045AC00FFF7E0FF668837F07F001AD1F80911D24FF08054D4F8B8014069014630468847EA
:2045CC0004F5DC742068406B0146304688470128F8D121E005EB8605D5F80011012088478B
:2045EC001AE04FF08054D4F8B801C069014630468847D4F8B801406A014630468847D4F8E1
:20460C00B801C06A0146304688470121074A0848116001688908FCD3404604F039FBBDE8CF
:20462C00F081C046A812002044A8000028200860282008402DE9F0412C482B4908602C48E6
:20464C00FEF7B0FE2E4C0025032004F1180141F80C5F401E8D60FAD1241F062004F14C0176
:20466C000A46401E22F80C5BFBD10820214F0880214A8F602149121D22F00303CF1A676256
:20468C00E3612362E66904F12008944618460A4601E026F8025BB142FBD8B910E82700EB6C
:2046AC00810121F8045C4FF6FC761F8006EA0C0300F1E807D21A676106EA0201EC39A0F85A
:2046CC00E810284600F084FDA061D8F80000606101F040F902F084FA02F014FC04F07CFA5F
:2046EC002846BDE8F081C046341A0020556A0000B4A90000F980000033280020483F0020FF
:20470C000C1600202DE9F041DFF8B080044698F800001F4615460E46ADF1380D012804D02F
:20472C00FFF718FA4046012101704EB166603DB1A56004F0B1FA224A117819B104F0A8FAA0
:20474C00002038E0491CC9B2117004F0A1FA01251FB9684603F0AEFF6F4638682060786824
:20476C00E060387A2074F8686061386900B1A0610021782204F1200000F0A8FE05A80021FF
:20478C002422082304F058FA04F138008DF82C50002105AA04F04CFA05A8002124220823DF
:2047AC0004F06AFA04F1700006490B94002205AB04F056FA20460EB0BDE8F081491A00206F
:2047CC0032280020338A0000F8B504F09BF804F0A5F8044604F00C000C2845D0E0081ED266
:2047EC0003F05CFA234E376805460120014603F00CFD31686943884211D21F4C8220B0FBFB
:20480C00F7F0291A204604F033FA204604F02CFA0120FDF7F1FF204603F0C8FC25E020090B
:20482C0022D21648610939BF016821F00101016841F0010102460160D2F898004FF0805482
:20484C0040F00300C2F89800D4F8B8018069014620208847D4F8B801094C806B21688047EE
:20486C0001202060206800E030BF04F051F801F011F9F8BD80AB0000B41200208C21084041
:20488C002C2009402DE9F0470646D6F800907769B9F1FF3F07F4805A02D001F01FFF18B139
:2048AC004FF0FF30BDE8F0877069000907D37068401E03F02FFE706920F008007061002767
:2048CC0077603568B7601B4CF760002D1DD420680A2D1BDA8047EA001748616813588018D5
:2048EC0005468BB11969406888478046B8F1FF3F06D029684FF6FE704A892F6010404881EA
:20490C0060688047206803E0884720684FF0FF384FF0FF31BAF1000F316007D0804707481D
:20492C0000EB091003F09CFA606880474046BDE8F087C046C4190020AC1400201811002081
:20494C00F8B50D46EEB2290824BF27494D40274BB400DFF89CC0195900EA05020CEA0202E4
:20496C0000F4E02C85EA0107BCF5E02F00EA070721EA0001C7F3006742EA010201D1510E6F
:20498C0014D300F4E0210F4310D002F4E027B7F5A02707D0B7F5803704BF22F4003242F412
:2049AC00A02203E022F4803242F4C0221A51114CC10D04D3C5F38052A4F1D0018A55000E1C
:2049CC0010D304F069F9290E03D201220021B24002E00122B24011462368934319432160C4
:2049EC0004F056F9F8BDC046006000A000100840007F077FD02002402DE9F0410E462A4910
:204A0C0090461C4606AF8C4672680878BB8851783F881278002502EB012242F62321521AF7
:204A2C002AD0521E052A19D9921F0DD0263A35D1072F31D8C7F10700984298BF83B20CEB90
:204A4C00070000F1080121E0B84225DBC01B9842D8BF83B22380DCF804100BE0F06803F00C
:204A6C003DFE80B2B84217DBC01B9842D8BF83B22380F168C9190AE0082F0DD8C7F10800AC
:204A8C00984298BF83B20CEB07010F31238040461A4600F053F903E0072501E025800A25DC
:204AAC002846BDE8F081C046400F0020F8B5064604F0F2F8244A117819B104F0E9F801245F
:204ACC0040E00124147004F0E3F8214FA7F14002106EB2F868109446720805D302880A4345
:204AEC00520828BF02242BD2184D05F10C0213685B0825D3EC6313685B08FCD272083CBF97
:204B0C000021818006D3848041F001012037ACF868103868B1083ABF0021C180C480F108F3
:204B2C0038BF0024048103F0ABFF03F0B2FF286840F0400028602868002420F04000286074
:204B4C0003F016FF2046F8BDC219002000500C40DC160020F8B504F09FF8224C0746A06981
:204B6C0010F4602F25D0A069400CC6B2700807D2B00803D2F00828BF022602E0012600E006
:204B8C000026751D68B201F043FCA16906F111020120904081433846A16104F079F804EB6A
:204BAC008600876847B1606810A20CCA2946B84702E0384604F06CF8A06918B10A480021C1
:204BCC0003F014FDE07F80080BD367692FB1606808A20CCA6FF00101B847E07F00F0FD005C
:204BEC00E077F8BD142700209C260020000000000000000800000000000000802DE9F04191
:204C0C0014460F4604F048F81FFA80F81F480068007808B903F06CFBE7B138684FF0FF3507
:204C2C0018B140280AD3810B08D17E681EB1310A04D0310E02D1B9680F2908D93DB10CB13A
:204C4C00284620700820FFF7B9FB002418E07968BA6803E04FF480700122014602F026FEC3
:204C6C000B49012008600B4908684008FCD30A4800684168022088470CB100212170044663
:204C8C00404604F005F82046BDE8F08100AB0000A802504208800240CC010010F0B520487A
:204CAC000127F84201D001F065FD204D204F214EBD4206D203CD0478A4003459401CA04780
:204CCC00F6E71D48002800D08047164D164FBD4202D210CDA047FAE7F0BD03251BE041680E
:204CEC0008300A1C2A400BD11A1C2A40AB4305D0046804300C600431043BF9D1131C05D053
:204D0C00047801300C700131013BF9D1021C2A4001D0A84304300368002BE0D17047C046AA
:204D2C00FFFFFFFF000000000000000038B0000098B00000F8AF000059C50110002A4AD021
:204D4C005FEA000C8B071CD1830722D1102A08D370B4103A78C978C0103AFBD270BC103275
:204D6C0038D0042A2CD3082A05D30C2A24BF08C908C008C908C008C908C092072AD0920FD0
:204D8C0022E00B780370491C401C521E22D08B07F7D1C30714D18307D8D0121F12D308C9CA
:204DAC0003801B0C4380001D121FF8D20AE008C903701B0A43701B0A83701B0AC370001DCF
:204DCC00121FF4D2121D05D00B780370491C401C521EF9D1604670472DE9F8432020EFF30B
:204DEC00118780F31188214CA068012103F0F0FE4FF001094FF0000865692168A4F81C905C
:204E0C006A1A2168A4F81E80461B401A904227D387F3118840462D18361A4846294603F09A
:204E2C00D3FEB042F7D92021EFF3118781F31188E18B012903D14046294603F0C5FEB0F155
:204E4C00FF3F06D0A169801B814238BF081C291801E0A069411903F0B3FEA4F820902560B5
:204E6C00A4F81C8087F31188BDE8F883780100208B4208BF824204D90B1C021C0021002067
:204E8C007047002B08BF002A0BD10B1C021C00210020002B08BF002A1CBFC943C04302F0D9
:204EAC000ABEF0B51C4615460B46024600200021B4FA84F6202E04BFB5FA85F62036B3FA7C
:204ECC0083F7202F04BFB2FA82F72037F61BB6F1200727BF05FA07F400257F42B4403EBF28
:204EEC0025FA07F73C43B540A34208BFAA4201D3521BA341404149416D0845EAC475640804
:204F0C00761EF1D5F0BD7047B0B50446A768ADF1280D5FBB0C2000F05BF9071C1DD06846EE
:204F2C0000212422082303F0A7FE002306976A466168ADF810301848059303F03DFE38605F
:204F4C0070B90820ADF824000C25ADF8265009A802F04CFC384602F0C5FD6FF0030018E068
:204F6C00E06878602069B860A7600AE003F0EAF90546386803F01AF92069B860284603F0AA
:204F8C004DFB3868616803F073FE386803F06CFE00200AB0B0BDC046D58800002DE9F843F8
:204FAC00DFF87C900F4604464FF0FF31484603F01FFEDFF870801D4800210AE0FF2A07D01F
:204FCC000368934202D958F822600EB1002421E0491C1FB117F82120FE2AEFD100202060E7
:204FEC00012660600546A0600EE0FF290BD0636806FA01F048F8214018430B49606012683C
:20500C00204602F0C1F96D1C27B107EB85021178FE29EAD1484603F0E7FD2046BDE8F88342
:20502C0050270020B8250020007FC767002800202DE9984303F030FE1F4CDFF878808146C8
:20504C0004F1E000007850B94446A0680146022088470746102001F0AFFC2FB320E000F039
:20506C00A1FF002820460FD1144909683222B2FBF1F101B9012100F13004204603F0F8FD16
:20508C00204603F0F1FD0FE044460022A16880F8E020022088470746102001F08DFC1FB1E9
:2050AC00A068014603208847484603F0F1FDBDE89883C046F0AA0000A812002080AB0000CF
:2050CC0070B51E4DAC68064603F0ACF94FF47A71001B4843030C02F037FE2969401A48BF3F
:2050EC00404240F6B831F618B14210D306280EDAE9688C420BD8286848B1114A091B51436B
:20510C008A0C02EB1141884288BF011C08E00D49486840080ED208687D2100F0FF004143E9
:20512C00C82905D3B1F57A6F88BF4FF47A6103E0C82101E04FF4FA61084670BDA4270020F5
:20514C0040420F00AC3F00502DE9F04180461F48076815460E46ADF1200D47B106A80090E4
:20516C0042464FF6FF711B230120B84700E00020059028B300210091BDF81810FF270DF165
:20518C0012030246019129460297FAF751FF041C11D16889ADF81000700804D302F086FF5D
:2051AC001B23074600E01D23404604A93A4601F0DFFB041C05D004A81B2103F0EBF800E027
:2051CC001524204608B0BDE8F081C046B0190020F8B5001D84B214F0030002D0241A241D0F
:2051EC00A4B203F0AFF81A49102C02464F690A61C8BF8F69388800231E46C10BCD0319D15D
:20520C0026B984420ADD3B46012617E01988091889B28C42198011DC1F4608469FB1001BE8
:20522C0080B20428B4BF3C88385344F400443C803F1D08E080F40040002680B23F183888A3
:20524C000028DAD10027104603F0E8F93846F8BD081600202DE9F041984616460F4604468D
:20526C0003F0F6FC0546384602F0D6FC42463146071C03D1284603F0E7FC24E0F87F10F0FB
:20528C00070F19D112487B68984202D07B682366786004F1580080E80600284603F0D4FCE9
:2052AC0004F138004FF0FF3103F0A2FC04F1680797E80300BDE8F081284603F0C5FCF87F20
:2052CC0010F0070FFBD102200021BDE8F081C046B56500001CB5042002F0C4FF022818D0AB
:2052EC00032816D016480068C0F38150032814BF41F288324FF47A721248144C0168543482
:20530C002046B2FBF1F103F0B3FC204603F0ACFC1CBD03200C4C009000214FF040521C23D4
:20532C00204601F095FA012000214FF4007209230090204601F08CFA022002F0CFFA1CBD35
:20534C00B43F005080AB000000A00C40A81200202DE9FF410E4605461A4C7188E08A81428C
:20536C000CDCB188814209DBF088218B884205D13089618B884208BF18271FD0052001F01B
:20538C00EFFC77888046F188B388ADF80270A08AADF806100C4AADF800003789ADF804300D
:2053AC0011216846ADF8087002F073F9071C05D1A57304F1F000414601F056FE38460090B6
:2053CC00BDE8FF81D40B00207B8A00002DE9F843884603F061FC1B4D6C78814603F022F809
:2053EC00E60006EB4416761906F1B8073860A888A6F8BC00A888401CA880B8F80E00A6F8F9
:20540C00BE0008F110004EC808374EC70FC887E80F00AE7800271EB92878A04208BF012765
:20542C00641CE4B2202C1CBF6C70002002D100206870044607B12C70A870484603F028FC01
:20544C00BDE8F8830802002000B5401EADF1240D08D0401F31D140F215306946FEF70EFCB6
:20546C00684628E04FF4417006A9FEF707FC9DF819308DF801309DF81A208DF802200021A4
:20548C008DF804109DF818008DF803109DF81D308DF800009DF81C208DF807309DF81B304E
:2054AC008DF8062069468DF80530054B0A6849681A6006A8596001F04FF809B000BDC046C4
:2054CC004F0F0020002213460A46194671B510F0030F0BD0002A82BF00F8011BB2F10102E0
:2054EC0010F0030FF6D1002A08BF71BD11F0FF0141EA0121042A18D341EA0141082A0FD3C0
:20550C000E46102A08D30C460D46B2F10F0312F00F0272C0103BFCD812F0080F18BF42C066
:20552C0012F0040F18BF40F8041B12F0020F18BF20F8021B12F0010F18BF017071BD7047BE
:20554C002DE9F047071C0E462FD076B31848017800244FF6FF7A804625E0A000C519385ABD
:20556C0082451CD0A878D0B112480D21C268964204D0491E00F11000F8D110E08146A87865
:20558C00410805D3288801214A46FFF7DDFDA878800804D3288802214A46FFF7D5FD98F872
:2055AC000010641CE4B2A142D7DCBDE8F087C046D40B0020DC1300201B4B8C4610B50146AF
:2055CC0000241046F9B1491E14D0491E0AD0491E26D1BCF1040F19D1006803F10C01086036
:2055EC0018691AE0BCF1040F10D10068191D0860986812E0BCF1040F08D1006803F1140181
:20560C000860986909E0BCF1040F01D0182408E0006803F11C010860186AFFF791FF00E0AE
:20562C000224204610BDC046B813002038B5054601201A4C68712879B0B902F083FE217866
:20564C00002904BF6FF00704051C15D0491EC9B2217039B902F0E2FF606802F0E7F90020F0
:20566C00687118E0054613E002F06CFE05462078FF2805D16FF00604284602F0CFFF0BE051
:20568C00401CC0B20128207002D1606802F0E5F9284602F0C3FF0024204638BDCC19002066
:2056AC0070B50646B079F4680628A4F10C042CDA3079062829DA02F045FE154DB2799100E2
:2056CC000C3501EBC20149194968E1B102F0A6FF30792071B0796071307AA071B1798800F1
:2056EC0000EBC1004019F1684068083002F026FAB179880000EBC10040194068406803F054
:20570C0073FA002070BD02F089FF6FF0020070BD4816002038B519491A4C00204822C1F845
:20572C00F30F94F8E200C1F8FF2F20B3012817D0022807D003281ED151F8310C00F024F876
:20574C000B2016E051F8315C2846FDF777FB40F2FF50A84202D8801CA842F1D2082008E0D4
:20576C0051F8310C00F092FB054800780028E7D0052084F8E400FDF7CFFF38BD39400C4075
:20578C00FEAA0000A812002038B51A4CA0F5C060D4F8B810C4F8D4000029B8BF49420028FC
:2057AC00B8BF4042814220DAB4F8BC00124D30214FF47F4208230090284601F049F8B4F804
:2057CC00C00004214FF4F80212230090284601F03FF8B4F8D00020214FF440620A230090E1
:2057EC00284601F035F8012000E0002084F8D80038BDC046A812002000A00C4038B50546A3
:20580C00880F26D301F042FB124803F057F812480078012803D005F1380003F0E5F90F48FE
:20582C0000240460022002F059F81120FEF7C6FD287C10B90E20FEF7C1FD09480A49094A41
:20584C0004700878147020B108480C70042102F0CDFE38BDF1420000491A00200000046036
:20586C00292800202E2800202C280020682600202DE9F8438146EFF31188202080F3118834
:20588C00174D154C134F012605F11C000660A4F114000660F86A016A14208847D9F8100076
:2058AC00810C14BF000C04202060386802682321002090470948066054F8180C20F4C0206C
:2058CC0040F4803044F8180C2E6088F31188BDE8F883C046840100101820094080022443B1
:2058EC00000024432DE9F041184E0446306890460D4680472068B0F1FF3F22D0B8F1010FA4
:20590C0007D16069400904D3A06810B12169081A2D1A204600F0E2FE6069226820F42060E1
:20592C00002A60610DD40A2A0BDA0949D00047583FB10A584018D16940680B4642462946E1
:20594C00984770688047BDE8F081C046C4190020AC140020B0B5ADF1400D03F07DF90446C1
:20596C0000213C220823684603F022F91148416806918168006804900F48006800220590C1
:20598C000E480891694603F00FF9071C0DD002F0D9FC0546384600F02FFE30B1284602F074
:2059AC003DFE204603F04CF901E003F086F810B0B0BDC0462CA700000C1600209987000048
:2059CC0030B5401E4FF00004ADF12C0D0AD0401E04D0401E20D1FDF79FFE1DE000F098FBF2
:2059EC00044619E001A821462422082303F044F906940D4DADF8144009490794012201ABFE
:205A0C0005F1780003F02CF9064A23462C2105F19C00009303F004F920460BB030BDC046C5
:205A2C00395E000021570000A81200202DE9F041164D8046286817460E468047144C404613
:205A4C00002220700012A6701346A771214660703012E07030142071301660713812E0719F
:205A6C00F42001F01DFB0021204601F0F5FC6868A778E67825786478804705EB074000EBE5
:205A8C00066000EB0420BDE8F081C046C4190020F8270020164880B507683FB315498B68E8
:205AAC0003EA5300C00E21D2134A106880081DD2486880081AD21068096810F0050F4FEA33
:205ACC00114101F0F00101F5E0710AD1B9420DD2190F38BF40F00100D90E38BF40F0040028
:205AEC0003E0B94202D920F00500106080BDC04628500940AC3F00500000094010B503F01C
:205B0C00CBF81149097829B110490C6803F0C0F8204610BD03F0BCF802F0C2FD0FA20CCA77
:205B2C0002F01CFD0A4A126800231B184FEA020408A044EB010490E80600C91842EB04027D
:205B4C001046001C10BDC0462B28002004300440DC270020000000127A00000000093D0014
:205B6C00000000002DE9904190460F4603F094F80246154803788324391C40460BD0491EA4
:205B8C0002D0491E13D010E00C490978012906D00B49098807E00B490B1D1F680FB98024DC
:205BAC0006E04968898B018002E0032400E00370104603F06DF82046BDE890812828002017
:205BCC0030270020B82700202B280020F0B50F461749144605461122ADF1140D6846FFF73B
:205BEC00ADF800210F222046FFF770FC0F263A2017E00F2E03DA761E04F8010BF6B2297855
:205C0C0009111DF8011004F8011B15F8011B01F00F011DF801107F1EB61EFFB2F6B204F80A
:205C2C00011B1FB1042EE4DA06B1207005B0F0BDACAA0000F8B5844640F6FF741CF8013B0D
:205C4C00002210E0481B401E10F8015B7F1E01F8015BF9D103E01CF8010B01F8010B521CCF
:205C6C005B08082AEADA5808F5D21CF8010B1CF8015B05F00F07FF1CC5F30315122F45EAA2
:205C8C00001508D11CF8016B300A24BF1CF8010B60F3DF16BF19AC42D4D1F8BD2DE9FF418F
:205CAC0005462B683A21184602F0D9FCDFF85080061C20D0F41A082CC8BF082468461946BF
:205CCC00224601F07FFC002004F80D009DF8000088B14046502400F178073846694602F064
:205CEC0061FC20B93FB1761C38462E6005E0283C2837282CF1D2404650300090BDE8FF815A
:205D0C00AC14002070B5164D064628680C46ADF1680D80476846314602F0FDFC304602F08F
:205D2C00DDFC431C21460DEB030002F0F4FC204602F0D4FC0B4C1B186A462146F7205B1C84
:205D4C0001F0AEF90021204601F086FB686865782478804704EB052420B21AB070BDC046AF
:205D6C00C4190020F8270020B0B5074602F094FF114905460878D8B1401EC0B20870B8B93D
:205D8C000E48082102F032FC97B10D4C2068703002F00CFA0C4920680968C068094C3F1A73
:205DAC002046B7FBF1F102F063FF204602F05CFF284602F06DFFB0BD312800206826002076
:205DCC0018280020D026002080AB0000D0B5044602F016FF00F010FC071C08BF6FF00204F5
:205DEC001FD002F0AFFA0146A2880F480023243030F80C6F5EB902804760A2688260237369
:205E0C00786820610024084602F008FC09E0964208BF6FF00204F6D05B1C062BE8D302F0A5
:205E2C004CFE2046D0BDC046241600201648144A144908B5E4300078801E0A2807D8DFE8E1
:205E4C0000F01814100614100614100609C002F0DBFE11E010688008FCD250688008FCD24F
:205E6C000AE008688008FCD306E008688008FCD202E010688008FCD3FDF74EFC08BDC046FF
:205E8C0034600C4038600C40A8120020134910B50A684BF2F5214843040AC2F3814001283A
:205EAC0006D101F051FF00F0D3FF604304EB90540C4901F1E500007830B90948006820F030
:205ECC007F402418640802E0002081F8E50006480460210C41600123836010BDB43F005058
:205EEC0010200940A81200203C600C402DE9F041134E07463068144688468047114D21124E
:205F0C0069704046A8702C70010A3846E97002F0E5FB431C3A462946F02001F0C1F8002185
:205F2C00284601F099FA70686E782D78804705EB062528B2002848BF041C2046BDE8F08179
:205F4C00C4190020F8270020B0B5044602F01CFD30F0010008BF6FF004041ED002F050FEC2
:205F6C00054602F0EFF901460D480622403030F80C7F6FB1A388BB4208D1406800680022B6
:205F8C00854208BF0122A260002403E0521EEED14FF0FF34084602F041FB2046B0BDC04645
:205FAC000816002008B5012002F05CF901281DD00F4834210122002300F072FE002808BF1B
:205FCC00002014D00B48006801F00EFF02F02AFA0A4A93681168D060C01A074BA1EB9101A0
:205FEC004343180C884228BF011C1160012008BD00A00C408000001040420F00A4270020CE
:20600C0098B5154B1B1D18680004070C21D001F09BFE104991F90720824205DD10F1800F3D
:20602C00B8BF6FF07F00C8718C88BC4210D80A68D3F8D40F801A801C1F2888BF1F203F1B4F
:20604C004008C7404FF6FF70E719B84238BF071C8F8098BDF027002030100940154909682A
:20606C0021280ADC212819D00B380FD00E380FD0001F0FD0C01E0FD01AE0253810D0001F5B
:20608C0010D0401E10D0401E10D011E04868704788687047C8687047086970474869704722
:2060AC0088697047C8697047086A7047486A704700207047F0010020F8B5134D04462868E3
:2060CC0017460E46804738462146B0F5807F88BF4FF480700D4C2170030AE3700022A070BD
:2060EC000F12677013462146F22000F0D9FF3146204601F0B1F9686865782478804704EB8B
:20610C00052420B2F8BDC046C4190020F827002038B5134D95F8E100002410B91148007808
:20612C0060B102F0B9FD95F8E310002906BF012185F8E310012402F0ABFD0CB1002038BD09
:20614C00022001F0E3FB0E20FEF70CFA01F010FF01280EBF0120002085F8E20038BDC04688
:20616C00A8120020FEAA0000084610B500F0005100F00400084317D0012002F073F8012870
:20618C000CD00B48094C016832222046B2FBF1F102F06EFD204602F067FD10BD054802F098
:2061AC008DFB05490548086010BDC046D026002080AB0000051D000000100440CC270020AB
:2061CC002DE9F84F0AAFBC8882461D46914604F1120080B201F07AFFDFF83880D8F80CB099
:2061EC00061C14D086F808A0A6F809907573396806F10E002246FEF7A1FDA6F80B40584620
:20620C00314602F0CDFC4046806802F0EDFCBDE8F88FC046C0070020F8B5124D04462868F8
:20622C0016460F46804733463A462046B3F5807F88BF4FF480730C4C2070071267701E0A57
:20624C00A3702146E670F32000F02AFF0021204601F002F9686865782478804704EB05249B
:20626C0020B2F8BDC4190020F8270020D0B5044602F0C6FC01F0EAFA061C08BF6FF00400AB
:20628C001DD002F05FF8B168002908BF002709D051F80C2C0023B2600F4641F80C3CFF2602
:2062AC0001F8026C02F0BAF9A7603FB117F8080C207117F8070CA0710020D0BD0220D0BD8C
:2062CC00012838B51ED1012001F0CCFF01281BD002F0C0F80D4D0E480122322305F1E00113
:2062EC0000680A70B3FBF0F404B914463035284601F05CFF2846214602F0BAFC284602F00B
:20630C00B3FC01E001F026F8002038BDA812002080AB000010B50446207B00F00F000228E5
:20632C0019D110480078012815D0FFF7E7FBA1686FF070428908A1EB900082420BDDB0F19D
:20634C00704FBCBF0549084405490968C96801F57A71814200DB002010BDC046F6FFFF1FE8
:20636C0018280020481A00202DE9F041114C07462068AFB98047DFF840800325002658F852
:20638C00180FB0F1FF3F08D020688047404600F0A5F90746606880473E436D1EEFD104E024
:2063AC008047384600F09AF90646606880473046BDE8F081C4190020A011002010B51048B7
:2063CC000E4C01680C40E1430160A10907D34068800904D30D484FF4005102F007F914F4AE
:2063EC00602F09D00748016804F460240C4304600548002102F0FAF810BDC04620000E00EF
:20640C00081004402C2700209C26002068260020F8B5044602F040FC844610481838C17F3A
:20642C00C90802D3817FA14212D00D49091D868B0B68012504F10C0705FA07F2A540934304
:20644C0035430B600F68858317B9034900200870604602F01DFCF8BD481A00202C270020BF
:20646C0008100440DCB5044602F0CAFB01F0EEF9064602F089FA30F0010014BF002E6FF008
:20648C00040017D0606858B1B0F1FF3F05D0694601F0C4F930B107460BE04FF0FF3000E0BC
:2064AC00002000907068009902F0A2FB002700B901273846DCBD70472DE9F041064611485E
:2064CC00401C90F8008014460D46102001F0DEFD071C12D00421072202F0F6F8404601F0F9
:2064EC0022FD38727E72BD72FC6001F0DFFD044A394600F061FDBDE8F0810420BDE8F08114
:20650C00758A0000D40B0020F8B5044602F078FB00F072F8071C19D001F014FF84460D488C
:20652C000021243030F80C6F6EB94FF6F872028047600025856021717868A060604602F024
:20654C006DF82846F8BD491C0629EBD302F0B5FAF8BDC04624160020114990B50446112283
:20656C00ADF1140D6846FEF7E9FB0E48A41D30210627017078214170801C14F8011D091199
:20658C001DF80110237800F8011B03F00F011DF801107F1E00F8011BEFD105B090BDC04678
:2065AC00BDAA0000E02700202DE998430446276E9946904607B1B8470020022100EA0900CF
:2065CC0001EA0801002808BF00290BD104F1580090E8060008EA010109EA0200002808BF24
:2065EC00002907D004F1680080E8000304F1380002F0FAFABDE898832DE9F843804601F0EC
:20660C00A1FE0F4C03250026814654F80C7F5FB93046C4F800800146A6600A4602F0BCFA79
:20662C00606018B902F049FA474501D1264601E06D1EEAD1484601F0F1FF3046BDE8F88392
:20664C0024160020B0B5054602F0DAFA044602F09BF930F0010008BF6FF0040414D001F06A
:20666C0071FE0A4A002132F80C7F4FB153681B689C4204BF2971002404D0491C0629F2D3AB
:20668C006FF0040401F0CAFF2046B0BD481600207CB5114D04460E46600807D3B0B200218A
:2066AC00009001220B46284600F0D2F8A00807D3B0B20090002102220123284600F0C8F8A7
:2066CC00E00807D3B0B2009000210C220223284600F0BEF87CBDC04600A00C4038B5044610
:2066EC002568B5F1FF3F12D063690020990909D3616839B1A268914204D0521A284601F0A2
:20670C00C3FB6369002805D543F4806363614FF0FF3038BD60682061A060D80924BF23F080
:20672C0030036361002038BD98B50F4C21684868406808B1804721684A68906808B9D76805
:20674C008FB10A491C310F68002FFCD000230B6010B1804720684268D06800B18047044897
